Archive member included to satisfy reference by file (symbol)

/usr/local/gcc-arm-none-eabi-5_2-2015q4/bin/../lib/gcc/arm-none-eabi/5.2.1/../../../../arm-none-eabi/lib/armv7e-m/libg_nano.a(lib_a-atoi.o)
                              ./src/main.o (atoi)
/usr/local/gcc-arm-none-eabi-5_2-2015q4/bin/../lib/gcc/arm-none-eabi/5.2.1/../../../../arm-none-eabi/lib/armv7e-m/libg_nano.a(lib_a-ctype_.o)
                              ./system/src/newlib/_syscalls.o (__ctype_ptr__)
/usr/local/gcc-arm-none-eabi-5_2-2015q4/bin/../lib/gcc/arm-none-eabi/5.2.1/../../../../arm-none-eabi/lib/armv7e-m/libg_nano.a(lib_a-errno.o)
                              ./system/src/newlib/_sbrk.o (__errno)
/usr/local/gcc-arm-none-eabi-5_2-2015q4/bin/../lib/gcc/arm-none-eabi/5.2.1/../../../../arm-none-eabi/lib/armv7e-m/libg_nano.a(lib_a-findfp.o)
                              ./system/src/newlib/_syscalls.o (__sinit)
/usr/local/gcc-arm-none-eabi-5_2-2015q4/bin/../lib/gcc/arm-none-eabi/5.2.1/../../../../arm-none-eabi/lib/armv7e-m/libg_nano.a(lib_a-fwalk.o)
                              /usr/local/gcc-arm-none-eabi-5_2-2015q4/bin/../lib/gcc/arm-none-eabi/5.2.1/../../../../arm-none-eabi/lib/armv7e-m/libg_nano.a(lib_a-findfp.o) (_fwalk)
/usr/local/gcc-arm-none-eabi-5_2-2015q4/bin/../lib/gcc/arm-none-eabi/5.2.1/../../../../arm-none-eabi/lib/armv7e-m/libg_nano.a(lib_a-fwrite.o)
                              ./src/main.o (fwrite)
/usr/local/gcc-arm-none-eabi-5_2-2015q4/bin/../lib/gcc/arm-none-eabi/5.2.1/../../../../arm-none-eabi/lib/armv7e-m/libg_nano.a(lib_a-impure.o)
                              /usr/local/gcc-arm-none-eabi-5_2-2015q4/bin/../lib/gcc/arm-none-eabi/5.2.1/../../../../arm-none-eabi/lib/armv7e-m/libg_nano.a(lib_a-findfp.o) (_global_impure_ptr)
/usr/local/gcc-arm-none-eabi-5_2-2015q4/bin/../lib/gcc/arm-none-eabi/5.2.1/../../../../arm-none-eabi/lib/armv7e-m/libg_nano.a(lib_a-memset.o)
                              ./system/src/newlib/_syscalls.o (memset)
/usr/local/gcc-arm-none-eabi-5_2-2015q4/bin/../lib/gcc/arm-none-eabi/5.2.1/../../../../arm-none-eabi/lib/armv7e-m/libg_nano.a(lib_a-nano-mallocr.o)
                              /usr/local/gcc-arm-none-eabi-5_2-2015q4/bin/../lib/gcc/arm-none-eabi/5.2.1/../../../../arm-none-eabi/lib/armv7e-m/libg_nano.a(lib_a-findfp.o) (_malloc_r)
/usr/local/gcc-arm-none-eabi-5_2-2015q4/bin/../lib/gcc/arm-none-eabi/5.2.1/../../../../arm-none-eabi/lib/armv7e-m/libg_nano.a(lib_a-puts.o)
                              ./src/main.o (puts)
/usr/local/gcc-arm-none-eabi-5_2-2015q4/bin/../lib/gcc/arm-none-eabi/5.2.1/../../../../arm-none-eabi/lib/armv7e-m/libg_nano.a(lib_a-sbrkr.o)
                              /usr/local/gcc-arm-none-eabi-5_2-2015q4/bin/../lib/gcc/arm-none-eabi/5.2.1/../../../../arm-none-eabi/lib/armv7e-m/libg_nano.a(lib_a-nano-mallocr.o) (_sbrk_r)
/usr/local/gcc-arm-none-eabi-5_2-2015q4/bin/../lib/gcc/arm-none-eabi/5.2.1/../../../../arm-none-eabi/lib/armv7e-m/libg_nano.a(lib_a-stdio.o)
                              /usr/local/gcc-arm-none-eabi-5_2-2015q4/bin/../lib/gcc/arm-none-eabi/5.2.1/../../../../arm-none-eabi/lib/armv7e-m/libg_nano.a(lib_a-findfp.o) (__sread)
/usr/local/gcc-arm-none-eabi-5_2-2015q4/bin/../lib/gcc/arm-none-eabi/5.2.1/../../../../arm-none-eabi/lib/armv7e-m/libg_nano.a(lib_a-strcmp.o)
                              ./system/src/cortexm/exception_handlers.o (strcmp)
/usr/local/gcc-arm-none-eabi-5_2-2015q4/bin/../lib/gcc/arm-none-eabi/5.2.1/../../../../arm-none-eabi/lib/armv7e-m/libg_nano.a(lib_a-strlen.o)
                              ./system/src/newlib/_syscalls.o (strlen)
/usr/local/gcc-arm-none-eabi-5_2-2015q4/bin/../lib/gcc/arm-none-eabi/5.2.1/../../../../arm-none-eabi/lib/armv7e-m/libg_nano.a(lib_a-strncpy.o)
                              ./system/src/newlib/_syscalls.o (strncpy)
/usr/local/gcc-arm-none-eabi-5_2-2015q4/bin/../lib/gcc/arm-none-eabi/5.2.1/../../../../arm-none-eabi/lib/armv7e-m/libg_nano.a(lib_a-strtol.o)
                              /usr/local/gcc-arm-none-eabi-5_2-2015q4/bin/../lib/gcc/arm-none-eabi/5.2.1/../../../../arm-none-eabi/lib/armv7e-m/libg_nano.a(lib_a-atoi.o) (_strtol_r)
/usr/local/gcc-arm-none-eabi-5_2-2015q4/bin/../lib/gcc/arm-none-eabi/5.2.1/../../../../arm-none-eabi/lib/armv7e-m/libg_nano.a(lib_a-vsnprintf.o)
                              ./system/src/diag/Trace.o (vsnprintf)
/usr/local/gcc-arm-none-eabi-5_2-2015q4/bin/../lib/gcc/arm-none-eabi/5.2.1/../../../../arm-none-eabi/lib/armv7e-m/libg_nano.a(lib_a-wbuf.o)
                              /usr/local/gcc-arm-none-eabi-5_2-2015q4/bin/../lib/gcc/arm-none-eabi/5.2.1/../../../../arm-none-eabi/lib/armv7e-m/libg_nano.a(lib_a-fwrite.o) (__swbuf_r)
/usr/local/gcc-arm-none-eabi-5_2-2015q4/bin/../lib/gcc/arm-none-eabi/5.2.1/../../../../arm-none-eabi/lib/armv7e-m/libg_nano.a(lib_a-writer.o)
                              /usr/local/gcc-arm-none-eabi-5_2-2015q4/bin/../lib/gcc/arm-none-eabi/5.2.1/../../../../arm-none-eabi/lib/armv7e-m/libg_nano.a(lib_a-stdio.o) (_write_r)
/usr/local/gcc-arm-none-eabi-5_2-2015q4/bin/../lib/gcc/arm-none-eabi/5.2.1/../../../../arm-none-eabi/lib/armv7e-m/libg_nano.a(lib_a-wsetup.o)
                              /usr/local/gcc-arm-none-eabi-5_2-2015q4/bin/../lib/gcc/arm-none-eabi/5.2.1/../../../../arm-none-eabi/lib/armv7e-m/libg_nano.a(lib_a-fwrite.o) (__swsetup_r)
/usr/local/gcc-arm-none-eabi-5_2-2015q4/bin/../lib/gcc/arm-none-eabi/5.2.1/../../../../arm-none-eabi/lib/armv7e-m/libg_nano.a(lib_a-closer.o)
                              /usr/local/gcc-arm-none-eabi-5_2-2015q4/bin/../lib/gcc/arm-none-eabi/5.2.1/../../../../arm-none-eabi/lib/armv7e-m/libg_nano.a(lib_a-stdio.o) (_close_r)
/usr/local/gcc-arm-none-eabi-5_2-2015q4/bin/../lib/gcc/arm-none-eabi/5.2.1/../../../../arm-none-eabi/lib/armv7e-m/libg_nano.a(lib_a-fflush.o)
                              /usr/local/gcc-arm-none-eabi-5_2-2015q4/bin/../lib/gcc/arm-none-eabi/5.2.1/../../../../arm-none-eabi/lib/armv7e-m/libg_nano.a(lib_a-findfp.o) (_fflush_r)
/usr/local/gcc-arm-none-eabi-5_2-2015q4/bin/../lib/gcc/arm-none-eabi/5.2.1/../../../../arm-none-eabi/lib/armv7e-m/libg_nano.a(lib_a-lseekr.o)
                              /usr/local/gcc-arm-none-eabi-5_2-2015q4/bin/../lib/gcc/arm-none-eabi/5.2.1/../../../../arm-none-eabi/lib/armv7e-m/libg_nano.a(lib_a-stdio.o) (_lseek_r)
/usr/local/gcc-arm-none-eabi-5_2-2015q4/bin/../lib/gcc/arm-none-eabi/5.2.1/../../../../arm-none-eabi/lib/armv7e-m/libg_nano.a(lib_a-makebuf.o)
                              /usr/local/gcc-arm-none-eabi-5_2-2015q4/bin/../lib/gcc/arm-none-eabi/5.2.1/../../../../arm-none-eabi/lib/armv7e-m/libg_nano.a(lib_a-wsetup.o) (__smakebuf_r)
/usr/local/gcc-arm-none-eabi-5_2-2015q4/bin/../lib/gcc/arm-none-eabi/5.2.1/../../../../arm-none-eabi/lib/armv7e-m/libg_nano.a(lib_a-nano-freer.o)
                              /usr/local/gcc-arm-none-eabi-5_2-2015q4/bin/../lib/gcc/arm-none-eabi/5.2.1/../../../../arm-none-eabi/lib/armv7e-m/libg_nano.a(lib_a-wsetup.o) (_free_r)
/usr/local/gcc-arm-none-eabi-5_2-2015q4/bin/../lib/gcc/arm-none-eabi/5.2.1/../../../../arm-none-eabi/lib/armv7e-m/libg_nano.a(lib_a-nano-svfprintf.o)
                              /usr/local/gcc-arm-none-eabi-5_2-2015q4/bin/../lib/gcc/arm-none-eabi/5.2.1/../../../../arm-none-eabi/lib/armv7e-m/libg_nano.a(lib_a-vsnprintf.o) (_svfprintf_r)
/usr/local/gcc-arm-none-eabi-5_2-2015q4/bin/../lib/gcc/arm-none-eabi/5.2.1/../../../../arm-none-eabi/lib/armv7e-m/libg_nano.a(lib_a-nano-vfprintf_i.o)
                              /usr/local/gcc-arm-none-eabi-5_2-2015q4/bin/../lib/gcc/arm-none-eabi/5.2.1/../../../../arm-none-eabi/lib/armv7e-m/libg_nano.a(lib_a-nano-svfprintf.o) (_printf_i)
/usr/local/gcc-arm-none-eabi-5_2-2015q4/bin/../lib/gcc/arm-none-eabi/5.2.1/../../../../arm-none-eabi/lib/armv7e-m/libg_nano.a(lib_a-readr.o)
                              /usr/local/gcc-arm-none-eabi-5_2-2015q4/bin/../lib/gcc/arm-none-eabi/5.2.1/../../../../arm-none-eabi/lib/armv7e-m/libg_nano.a(lib_a-stdio.o) (_read_r)
/usr/local/gcc-arm-none-eabi-5_2-2015q4/bin/../lib/gcc/arm-none-eabi/5.2.1/../../../../arm-none-eabi/lib/armv7e-m/libg_nano.a(lib_a-fstatr.o)
                              /usr/local/gcc-arm-none-eabi-5_2-2015q4/bin/../lib/gcc/arm-none-eabi/5.2.1/../../../../arm-none-eabi/lib/armv7e-m/libg_nano.a(lib_a-makebuf.o) (_fstat_r)
/usr/local/gcc-arm-none-eabi-5_2-2015q4/bin/../lib/gcc/arm-none-eabi/5.2.1/../../../../arm-none-eabi/lib/armv7e-m/libg_nano.a(lib_a-isattyr.o)
                              /usr/local/gcc-arm-none-eabi-5_2-2015q4/bin/../lib/gcc/arm-none-eabi/5.2.1/../../../../arm-none-eabi/lib/armv7e-m/libg_nano.a(lib_a-makebuf.o) (_isatty_r)
/usr/local/gcc-arm-none-eabi-5_2-2015q4/bin/../lib/gcc/arm-none-eabi/5.2.1/../../../../arm-none-eabi/lib/armv7e-m/libg_nano.a(lib_a-memchr.o)
                              /usr/local/gcc-arm-none-eabi-5_2-2015q4/bin/../lib/gcc/arm-none-eabi/5.2.1/../../../../arm-none-eabi/lib/armv7e-m/libg_nano.a(lib_a-nano-svfprintf.o) (memchr)
/usr/local/gcc-arm-none-eabi-5_2-2015q4/bin/../lib/gcc/arm-none-eabi/5.2.1/../../../../arm-none-eabi/lib/armv7e-m/libg_nano.a(lib_a-memcpy-stub.o)
                              /usr/local/gcc-arm-none-eabi-5_2-2015q4/bin/../lib/gcc/arm-none-eabi/5.2.1/../../../../arm-none-eabi/lib/armv7e-m/libg_nano.a(lib_a-nano-svfprintf.o) (memcpy)
/usr/local/gcc-arm-none-eabi-5_2-2015q4/bin/../lib/gcc/arm-none-eabi/5.2.1/../../../../arm-none-eabi/lib/armv7e-m/libg_nano.a(lib_a-memmove.o)
                              /usr/local/gcc-arm-none-eabi-5_2-2015q4/bin/../lib/gcc/arm-none-eabi/5.2.1/../../../../arm-none-eabi/lib/armv7e-m/libg_nano.a(lib_a-nano-svfprintf.o) (memmove)
/usr/local/gcc-arm-none-eabi-5_2-2015q4/bin/../lib/gcc/arm-none-eabi/5.2.1/../../../../arm-none-eabi/lib/armv7e-m/libg_nano.a(lib_a-nano-reallocr.o)
                              /usr/local/gcc-arm-none-eabi-5_2-2015q4/bin/../lib/gcc/arm-none-eabi/5.2.1/../../../../arm-none-eabi/lib/armv7e-m/libg_nano.a(lib_a-nano-svfprintf.o) (_realloc_r)
/usr/local/gcc-arm-none-eabi-5_2-2015q4/bin/../lib/gcc/arm-none-eabi/5.2.1/../../../../arm-none-eabi/lib/armv7e-m/libg_nano.a(lib_a-nano-msizer.o)
                              /usr/local/gcc-arm-none-eabi-5_2-2015q4/bin/../lib/gcc/arm-none-eabi/5.2.1/../../../../arm-none-eabi/lib/armv7e-m/libg_nano.a(lib_a-nano-reallocr.o) (_malloc_usable_size_r)

Allocating common symbols
Common symbol       size              file

timer_delayCount    0x4               ./src/Timer.o
errno               0x4               ./system/src/newlib/_syscalls.o
uwTick              0x4               ./system/src/stm32f4-hal/stm32f4xx_hal.o
pFlash              0x20              ./system/src/stm32f4-hal/stm32f4xx_hal_flash.o

Discarded input sections

 .group         0x0000000000000000        0x8 ./system/src/stm32f4-hal/stm32f4xx_hal.o
 .group         0x0000000000000000        0x8 ./system/src/stm32f4-hal/stm32f4xx_hal.o
 .group         0x0000000000000000        0x8 ./system/src/stm32f4-hal/stm32f4xx_hal.o
 .group         0x0000000000000000        0x8 ./system/src/stm32f4-hal/stm32f4xx_hal.o
 .group         0x0000000000000000        0x8 ./system/src/stm32f4-hal/stm32f4xx_hal.o
 .group         0x0000000000000000        0x8 ./system/src/stm32f4-hal/stm32f4xx_hal.o
 .group         0x0000000000000000        0x8 ./system/src/stm32f4-hal/stm32f4xx_hal.o
 .group         0x0000000000000000        0x8 ./system/src/stm32f4-hal/stm32f4xx_hal.o
 .group         0x0000000000000000        0x8 ./system/src/stm32f4-hal/stm32f4xx_hal.o
 .group         0x0000000000000000        0x8 ./system/src/stm32f4-hal/stm32f4xx_hal.o
 .group         0x0000000000000000        0x8 ./system/src/stm32f4-hal/stm32f4xx_hal.o
 .group         0x0000000000000000        0x8 ./system/src/stm32f4-hal/stm32f4xx_hal.o
 .group         0x0000000000000000        0x8 ./system/src/stm32f4-hal/stm32f4xx_hal.o
 .group         0x0000000000000000        0x8 ./system/src/stm32f4-hal/stm32f4xx_hal.o
 .group         0x0000000000000000        0x8 ./system/src/stm32f4-hal/stm32f4xx_hal.o
 .group         0x0000000000000000        0x8 ./system/src/stm32f4-hal/stm32f4xx_hal.o
 .group         0x0000000000000000        0x8 ./system/src/stm32f4-hal/stm32f4xx_hal.o
 .group         0x0000000000000000        0x8 ./system/src/stm32f4-hal/stm32f4xx_hal.o
Memory Configuration

Name             Origin             Length             Attributes
RAM              0x0000000020000000 0x0000000000020000 xrw
CCMRAM           0x0000000010000000 0x0000000000010000 xrw
FLASH            0x0000000008000000 0x0000000000100000 xr
FLASHB1          0x0000000000000000 0x0000000000000000 xr
EXTMEMB0         0x0000000000000000 0x0000000000000000 xr
EXTMEMB1         0x0000000000000000 0x0000000000000000 xr
EXTMEMB2         0x0000000000000000 0x0000000000000000 xr
EXTMEMB3         0x0000000000000000 0x0000000000000000 xr
MEMORY_ARRAY     0x0000000020002000 0x0000000000000020 xrw
*default*        0x0000000000000000 0xffffffffffffffff

Linker script and memory map

LOAD ./system/src/stm32f4-hal/stm32f4xx_hal.o
LOAD ./system/src/stm32f4-hal/stm32f4xx_hal_cortex.o
LOAD ./system/src/stm32f4-hal/stm32f4xx_hal_flash.o
LOAD ./system/src/stm32f4-hal/stm32f4xx_hal_gpio.o
LOAD ./system/src/stm32f4-hal/stm32f4xx_hal_iwdg.o
LOAD ./system/src/stm32f4-hal/stm32f4xx_hal_pwr.o
LOAD ./system/src/stm32f4-hal/stm32f4xx_hal_rcc.o
LOAD ./system/src/newlib/_cxx.o
LOAD ./system/src/newlib/_exit.o
LOAD ./system/src/newlib/_sbrk.o
LOAD ./system/src/newlib/_startup.o
LOAD ./system/src/newlib/_syscalls.o
LOAD ./system/src/newlib/assert.o
LOAD ./system/src/diag/Trace.o
LOAD ./system/src/diag/trace_impl.o
LOAD ./system/src/cortexm/_initialize_hardware.o
LOAD ./system/src/cortexm/_reset_hardware.o
LOAD ./system/src/cortexm/exception_handlers.o
LOAD ./system/src/cmsis/system_stm32f4xx.o
LOAD ./system/src/cmsis/vectors_stm32f407xx.o
LOAD ./src/BlinkLed.o
LOAD ./src/Timer.o
LOAD ./src/_initialize_hardware.o
LOAD ./src/_write.o
LOAD ./src/main.o
LOAD ./src/stm32f4xx_hal_msp.o
LOAD /usr/local/gcc-arm-none-eabi-5_2-2015q4/bin/../lib/gcc/arm-none-eabi/5.2.1/../../../../arm-none-eabi/lib/armv7e-m/libstdc++_nano.a
LOAD /usr/local/gcc-arm-none-eabi-5_2-2015q4/bin/../lib/gcc/arm-none-eabi/5.2.1/../../../../arm-none-eabi/lib/armv7e-m/libm.a
START GROUP
LOAD /usr/local/gcc-arm-none-eabi-5_2-2015q4/bin/../lib/gcc/arm-none-eabi/5.2.1/armv7e-m/libgcc.a
LOAD /usr/local/gcc-arm-none-eabi-5_2-2015q4/bin/../lib/gcc/arm-none-eabi/5.2.1/../../../../arm-none-eabi/lib/armv7e-m/libg_nano.a
LOAD /usr/local/gcc-arm-none-eabi-5_2-2015q4/bin/../lib/gcc/arm-none-eabi/5.2.1/../../../../arm-none-eabi/lib/armv7e-m/libc_nano.a
END GROUP
START GROUP
LOAD /usr/local/gcc-arm-none-eabi-5_2-2015q4/bin/../lib/gcc/arm-none-eabi/5.2.1/armv7e-m/libgcc.a
LOAD /usr/local/gcc-arm-none-eabi-5_2-2015q4/bin/../lib/gcc/arm-none-eabi/5.2.1/../../../../arm-none-eabi/lib/armv7e-m/libc_nano.a
END GROUP
                0x0000000020020000                __stack = (ORIGIN (RAM) + LENGTH (RAM))
                0x0000000020020000                _estack = __stack
                0x0000000000000400                __Main_Stack_Size = 0x400
                [!provide]                        PROVIDE (_Main_Stack_Size, __Main_Stack_Size)
                0x000000002001fc00                __Main_Stack_Limit = (__stack - __Main_Stack_Size)
                [!provide]                        PROVIDE (_Main_Stack_Limit, __Main_Stack_Limit)
                0x0000000000000100                _Minimum_Stack_Size = 0x100
                0x0000000020000238                PROVIDE (_Heap_Begin, _end_noinit)
                0x000000002001fc00                PROVIDE (_Heap_Limit, (__stack - __Main_Stack_Size))

.isr_vector     0x0000000008000000      0x3ec
 FILL mask 0xff
                0x0000000008000000                __vectors_start = ABSOLUTE (.)
                0x0000000008000000                __vectors_start__ = ABSOLUTE (.)
 *(.isr_vector)
 .isr_vector    0x0000000008000000      0x188 ./system/src/cmsis/vectors_stm32f407xx.o
                0x0000000008000000                __isr_vectors
 *(.cfmconfig)
 *(.after_vectors .after_vectors.*)
 .after_vectors
                0x0000000008000188      0x130 ./system/src/newlib/_startup.o
                0x0000000008000188                _start
 .after_vectors
                0x00000000080002b8      0x130 ./system/src/cortexm/exception_handlers.o
                0x00000000080002b8                Reset_Handler
                0x00000000080002c0                NMI_Handler
                0x00000000080002c4                HardFault_Handler
                0x00000000080002d8                HardFault_Handler_C
                0x0000000008000338                MemManage_Handler
                0x000000000800033c                BusFault_Handler
                0x0000000008000350                BusFault_Handler_C
                0x0000000008000384                UsageFault_Handler
                0x0000000008000398                UsageFault_Handler_C
                0x00000000080003cc                SVC_Handler
                0x00000000080003d0                DebugMon_Handler
                0x00000000080003d4                PendSV_Handler
 .after_vectors
                0x00000000080003e8        0x4 ./system/src/cmsis/vectors_stm32f407xx.o
                0x00000000080003e8                DMA1_Stream3_IRQHandler
                0x00000000080003e8                HASH_RNG_IRQHandler
                0x00000000080003e8                EXTI2_IRQHandler
                0x00000000080003e8                TIM8_CC_IRQHandler
                0x00000000080003e8                TIM1_CC_IRQHandler
                0x00000000080003e8                DMA2_Stream5_IRQHandler
                0x00000000080003e8                DMA1_Stream5_IRQHandler
                0x00000000080003e8                PVD_IRQHandler
                0x00000000080003e8                SDIO_IRQHandler
                0x00000000080003e8                TAMP_STAMP_IRQHandler
                0x00000000080003e8                CAN2_RX1_IRQHandler
                0x00000000080003e8                EXTI3_IRQHandler
                0x00000000080003e8                TIM8_TRG_COM_TIM14_IRQHandler
                0x00000000080003e8                TIM1_UP_TIM10_IRQHandler
                0x00000000080003e8                TIM8_UP_TIM13_IRQHandler
                0x00000000080003e8                I2C3_ER_IRQHandler
                0x00000000080003e8                EXTI0_IRQHandler
                0x00000000080003e8                I2C2_EV_IRQHandler
                0x00000000080003e8                DMA1_Stream2_IRQHandler
                0x00000000080003e8                CAN1_RX0_IRQHandler
                0x00000000080003e8                FPU_IRQHandler
                0x00000000080003e8                OTG_HS_WKUP_IRQHandler
                0x00000000080003e8                CAN2_SCE_IRQHandler
                0x00000000080003e8                DMA2_Stream2_IRQHandler
                0x00000000080003e8                SPI1_IRQHandler
                0x00000000080003e8                TIM6_DAC_IRQHandler
                0x00000000080003e8                TIM1_BRK_TIM9_IRQHandler
                0x00000000080003e8                DCMI_IRQHandler
                0x00000000080003e8                CAN2_RX0_IRQHandler
                0x00000000080003e8                DMA2_Stream3_IRQHandler
                0x00000000080003e8                USART6_IRQHandler
                0x00000000080003e8                USART3_IRQHandler
                0x00000000080003e8                CAN1_RX1_IRQHandler
                0x00000000080003e8                UART5_IRQHandler
                0x00000000080003e8                DMA2_Stream0_IRQHandler
                0x00000000080003e8                TIM4_IRQHandler
                0x00000000080003e8                I2C1_EV_IRQHandler
                0x00000000080003e8                DMA1_Stream6_IRQHandler
                0x00000000080003e8                DMA1_Stream1_IRQHandler
                0x00000000080003e8                UART4_IRQHandler
                0x00000000080003e8                TIM3_IRQHandler
                0x00000000080003e8                RCC_IRQHandler
                0x00000000080003e8                TIM8_BRK_TIM12_IRQHandler
                0x00000000080003e8                Default_Handler
                0x00000000080003e8                EXTI15_10_IRQHandler
                0x00000000080003e8                ADC_IRQHandler
                0x00000000080003e8                DMA1_Stream7_IRQHandler
                0x00000000080003e8                TIM7_IRQHandler
                0x00000000080003e8                CAN2_TX_IRQHandler
                0x00000000080003e8                TIM5_IRQHandler
                0x00000000080003e8                DMA2_Stream7_IRQHandler
                0x00000000080003e8                I2C3_EV_IRQHandler
                0x00000000080003e8                EXTI9_5_IRQHandler
                0x00000000080003e8                RTC_WKUP_IRQHandler
                0x00000000080003e8                ETH_WKUP_IRQHandler
                0x00000000080003e8                SPI2_IRQHandler
                0x00000000080003e8                OTG_HS_EP1_IN_IRQHandler
                0x00000000080003e8                DMA1_Stream0_IRQHandler
                0x00000000080003e8                CAN1_TX_IRQHandler
                0x00000000080003e8                EXTI4_IRQHandler
                0x00000000080003e8                ETH_IRQHandler
                0x00000000080003e8                OTG_HS_EP1_OUT_IRQHandler
                0x00000000080003e8                WWDG_IRQHandler
                0x00000000080003e8                TIM2_IRQHandler
                0x00000000080003e8                OTG_FS_WKUP_IRQHandler
                0x00000000080003e8                TIM1_TRG_COM_TIM11_IRQHandler
                0x00000000080003e8                OTG_HS_IRQHandler
                0x00000000080003e8                EXTI1_IRQHandler
                0x00000000080003e8                USART2_IRQHandler
                0x00000000080003e8                I2C2_ER_IRQHandler
                0x00000000080003e8                DMA2_Stream1_IRQHandler
                0x00000000080003e8                CAN1_SCE_IRQHandler
                0x00000000080003e8                FLASH_IRQHandler
                0x00000000080003e8                DMA2_Stream4_IRQHandler
                0x00000000080003e8                USART1_IRQHandler
                0x00000000080003e8                OTG_FS_IRQHandler
                0x00000000080003e8                SPI3_IRQHandler
                0x00000000080003e8                DMA1_Stream4_IRQHandler
                0x00000000080003e8                I2C1_ER_IRQHandler
                0x00000000080003e8                FMC_IRQHandler
                0x00000000080003e8                DMA2_Stream6_IRQHandler
                0x00000000080003e8                RTC_Alarm_IRQHandler

.inits          0x00000000080003ec       0x28
                0x00000000080003ec                __data_regions_array_start = .
                0x00000000080003ec        0x4 LONG 0x80032d0 LOADADDR (.data)
                0x00000000080003f0        0x4 LONG 0x20000000 ADDR (.data)
                0x00000000080003f4        0x4 LONG 0x20000074 (ADDR (.data) + SIZEOF (.data))
                0x00000000080003f8        0x4 LONG 0x80032d0 LOADADDR (.data_CCMRAM)
                0x00000000080003fc        0x4 LONG 0x10000000 ADDR (.data_CCMRAM)
                0x0000000008000400        0x4 LONG 0x10000000 (ADDR (.data_CCMRAM) + SIZEOF (.data_CCMRAM))
                0x0000000008000404                __data_regions_array_end = .
                0x0000000008000404                __bss_regions_array_start = .
                0x0000000008000404        0x4 LONG 0x20000074 ADDR (.bss)
                0x0000000008000408        0x4 LONG 0x20000238 (ADDR (.bss) + SIZEOF (.bss))
                0x000000000800040c        0x4 LONG 0x10000000 ADDR (.bss_CCMRAM)
                0x0000000008000410        0x4 LONG 0x10000000 (ADDR (.bss_CCMRAM) + SIZEOF (.bss_CCMRAM))
                0x0000000008000414                __bss_regions_array_end = .
 *(.init)
 *(.fini)
                0x0000000008000414                . = ALIGN (0x4)
                0x0000000008000414                PROVIDE (__preinit_array_start, .)
 *(.preinit_array_sysinit .preinit_array_sysinit.*)
 *(.preinit_array_platform .preinit_array_platform.*)
 *(.preinit_array .preinit_array.*)
                0x0000000008000414                PROVIDE (__preinit_array_end, .)
                0x0000000008000414                . = ALIGN (0x4)
                0x0000000008000414                PROVIDE (__init_array_start, .)
 *(SORT(.init_array.*))
 *(.init_array)
                0x0000000008000414                PROVIDE (__init_array_end, .)
                0x0000000008000414                . = ALIGN (0x4)
                0x0000000008000414                PROVIDE (__fini_array_start, .)
 *(SORT(.fini_array.*))
 *(.fini_array)
                0x0000000008000414                PROVIDE (__fini_array_end, .)

.flashtext
 *(.flashtext .flashtext.*)

.text           0x0000000008000420     0x2eaf
 *(.text .text.*)
 .text.HAL_InitTick
                0x0000000008000420       0x28 ./system/src/stm32f4-hal/stm32f4xx_hal.o
                0x0000000008000420                HAL_InitTick
 .text.HAL_Init
                0x0000000008000448       0x34 ./system/src/stm32f4-hal/stm32f4xx_hal.o
                0x0000000008000448                HAL_Init
 .text.HAL_IncTick
                0x000000000800047c       0x10 ./system/src/stm32f4-hal/stm32f4xx_hal.o
                0x000000000800047c                HAL_IncTick
 .text.HAL_GetTick
                0x000000000800048c        0xc ./system/src/stm32f4-hal/stm32f4xx_hal.o
                0x000000000800048c                HAL_GetTick
 .text.HAL_NVIC_SetPriorityGrouping
                0x0000000008000498       0x3c ./system/src/stm32f4-hal/stm32f4xx_hal_cortex.o
                0x0000000008000498                HAL_NVIC_SetPriorityGrouping
 .text.HAL_NVIC_SetPriority
                0x00000000080004d4       0x84 ./system/src/stm32f4-hal/stm32f4xx_hal_cortex.o
                0x00000000080004d4                HAL_NVIC_SetPriority
 .text.HAL_SYSTICK_Config
                0x0000000008000558       0x2c ./system/src/stm32f4-hal/stm32f4xx_hal_cortex.o
                0x0000000008000558                HAL_SYSTICK_Config
 .text.HAL_SYSTICK_CLKSourceConfig
                0x0000000008000584       0x38 ./system/src/stm32f4-hal/stm32f4xx_hal_cortex.o
                0x0000000008000584                HAL_SYSTICK_CLKSourceConfig
 .text.HAL_GPIO_Init
                0x00000000080005bc      0x330 ./system/src/stm32f4-hal/stm32f4xx_hal_gpio.o
                0x00000000080005bc                HAL_GPIO_Init
 .text.HAL_GPIO_WritePin
                0x00000000080008ec       0x34 ./system/src/stm32f4-hal/stm32f4xx_hal_gpio.o
                0x00000000080008ec                HAL_GPIO_WritePin
 .text.HAL_RCC_OscConfig
                0x0000000008000920      0x448 ./system/src/stm32f4-hal/stm32f4xx_hal_rcc.o
                0x0000000008000920                HAL_RCC_OscConfig
 .text.HAL_RCC_ClockConfig
                0x0000000008000d68      0x22c ./system/src/stm32f4-hal/stm32f4xx_hal_rcc.o
                0x0000000008000d68                HAL_RCC_ClockConfig
 .text.HAL_RCC_GetSysClockFreq
                0x0000000008000f94       0xa0 ./system/src/stm32f4-hal/stm32f4xx_hal_rcc.o
                0x0000000008000f94                HAL_RCC_GetSysClockFreq
 .text.HAL_RCC_GetHCLKFreq
                0x0000000008001034       0x34 ./system/src/stm32f4-hal/stm32f4xx_hal_rcc.o
                0x0000000008001034                HAL_RCC_GetHCLKFreq
 .text.abort    0x0000000008001068       0x14 ./system/src/newlib/_exit.o
                0x0000000008001068                abort
 .text._sbrk    0x000000000800107c       0x44 ./system/src/newlib/_sbrk.o
                0x000000000800107c                _sbrk
 .text.get_errno
                0x00000000080010c0       0x14 ./system/src/newlib/_syscalls.o
 .text.error    0x00000000080010d4       0x14 ./system/src/newlib/_syscalls.o
 .text.checkerror
                0x00000000080010e8       0x10 ./system/src/newlib/_syscalls.o
 .text.findslot
                0x00000000080010f8       0x3c ./system/src/newlib/_syscalls.o
 .text._exit    0x0000000008001134       0x20 ./system/src/newlib/_syscalls.o
                0x0000000008001134                _exit
 .text.initialise_monitor_handles
                0x0000000008001154       0xa8 ./system/src/newlib/_syscalls.o
                0x0000000008001154                initialise_monitor_handles
 .text.__initialize_args
                0x00000000080011fc       0xe0 ./system/src/newlib/_syscalls.o
                0x00000000080011fc                __initialize_args
 .text._swiread
                0x00000000080012dc       0x20 ./system/src/newlib/_syscalls.o
                0x00000000080012dc                _swiread
 .text._read    0x00000000080012fc       0x38 ./system/src/newlib/_syscalls.o
                0x00000000080012fc                _read
 .text._swilseek
                0x0000000008001334       0xbc ./system/src/newlib/_syscalls.o
                0x0000000008001334                _swilseek
 .text._lseek   0x00000000080013f0        0x8 ./system/src/newlib/_syscalls.o
                0x00000000080013f0                _lseek
 .text._swiwrite
                0x00000000080013f8       0x20 ./system/src/newlib/_syscalls.o
                0x00000000080013f8                _swiwrite
 .text._write   0x0000000008001418       0x44 ./system/src/newlib/_syscalls.o
                0x0000000008001418                _write
 .text._swiclose
                0x000000000800145c       0x20 ./system/src/newlib/_syscalls.o
                0x000000000800145c                _swiclose
 .text._close   0x000000000800147c       0x4c ./system/src/newlib/_syscalls.o
                0x000000000800147c                _close
 .text._swistat
                0x00000000080014c8       0x4c ./system/src/newlib/_syscalls.o
                0x00000000080014c8                _swistat
 .text._fstat   0x0000000008001514       0x1c ./system/src/newlib/_syscalls.o
                0x0000000008001514                _fstat
 .text._isatty  0x0000000008001530       0x38 ./system/src/newlib/_syscalls.o
                0x0000000008001530                _isatty
 .text.assert_failed
                0x0000000008001568       0x14 ./system/src/newlib/assert.o
                0x0000000008001568                assert_failed
 .text.trace_printf
                0x000000000800157c       0x30 ./system/src/diag/Trace.o
                0x000000000800157c                trace_printf
 .text.trace_puts
                0x00000000080015ac       0x20 ./system/src/diag/Trace.o
                0x00000000080015ac                trace_puts
 .text.trace_dump_args
                0x00000000080015cc       0x44 ./system/src/diag/Trace.o
                0x00000000080015cc                trace_dump_args
 .text._trace_write_semihosting_debug
                0x0000000008001610       0x64 ./system/src/diag/trace_impl.o
 .text.trace_write
                0x0000000008001674        0x8 ./system/src/diag/trace_impl.o
                0x0000000008001674                trace_write
 .text.__initialize_hardware_early
                0x000000000800167c       0x18 ./system/src/cortexm/_initialize_hardware.o
                0x000000000800167c                __initialize_hardware_early
 .text.dumpExceptionStack
                0x0000000008001694       0xf0 ./system/src/cortexm/exception_handlers.o
                0x0000000008001694                dumpExceptionStack
 .text.isSemihosting
                0x0000000008001784      0x100 ./system/src/cortexm/exception_handlers.o
                0x0000000008001784                isSemihosting
 .text.SystemInit
                0x0000000008001884       0x40 ./system/src/cmsis/system_stm32f4xx.o
                0x0000000008001884                SystemInit
 .text.SystemCoreClockUpdate
                0x00000000080018c4       0xa0 ./system/src/cmsis/system_stm32f4xx.o
                0x00000000080018c4                SystemCoreClockUpdate
 .text.blink_led_init
                0x0000000008001964       0x40 ./src/BlinkLed.o
                0x0000000008001964                blink_led_init
 .text.timer_start
                0x00000000080019a4       0x3c ./src/Timer.o
                0x00000000080019a4                timer_start
 .text.timer_sleep
                0x00000000080019e0       0x14 ./src/Timer.o
                0x00000000080019e0                timer_sleep
 .text.timer_tick
                0x00000000080019f4       0x14 ./src/Timer.o
                0x00000000080019f4                timer_tick
 .text.SysTick_Handler
                0x0000000008001a08        0xc ./src/Timer.o
                0x0000000008001a08                SysTick_Handler
 .text.SystemClock_Config
                0x0000000008001a14       0x9c ./src/_initialize_hardware.o
                0x0000000008001a14                SystemClock_Config
 .text.__initialize_hardware
                0x0000000008001ab0       0x10 ./src/_initialize_hardware.o
                0x0000000008001ab0                __initialize_hardware
 .text.main     0x0000000008001ac0       0xb0 ./src/main.o
                0x0000000008001ac0                main
 .text.HAL_MspInit
                0x0000000008001b70        0x4 ./src/stm32f4xx_hal_msp.o
                0x0000000008001b70                HAL_MspInit
 .text.atoi     0x0000000008001b74        0x8 /usr/local/gcc-arm-none-eabi-5_2-2015q4/bin/../lib/gcc/arm-none-eabi/5.2.1/../../../../arm-none-eabi/lib/armv7e-m/libg_nano.a(lib_a-atoi.o)
                0x0000000008001b74                atoi
 .text.__errno  0x0000000008001b7c        0xc /usr/local/gcc-arm-none-eabi-5_2-2015q4/bin/../lib/gcc/arm-none-eabi/5.2.1/../../../../arm-none-eabi/lib/armv7e-m/libg_nano.a(lib_a-errno.o)
                0x0000000008001b7c                __errno
 .text._cleanup_r
                0x0000000008001b88        0xc /usr/local/gcc-arm-none-eabi-5_2-2015q4/bin/../lib/gcc/arm-none-eabi/5.2.1/../../../../arm-none-eabi/lib/armv7e-m/libg_nano.a(lib_a-findfp.o)
                0x0000000008001b88                _cleanup_r
 .text.std.isra.0
                0x0000000008001b94       0x48 /usr/local/gcc-arm-none-eabi-5_2-2015q4/bin/../lib/gcc/arm-none-eabi/5.2.1/../../../../arm-none-eabi/lib/armv7e-m/libg_nano.a(lib_a-findfp.o)
 .text.__sfmoreglue
                0x0000000008001bdc       0x2c /usr/local/gcc-arm-none-eabi-5_2-2015q4/bin/../lib/gcc/arm-none-eabi/5.2.1/../../../../arm-none-eabi/lib/armv7e-m/libg_nano.a(lib_a-findfp.o)
                0x0000000008001bdc                __sfmoreglue
 .text.__sinit  0x0000000008001c08       0x60 /usr/local/gcc-arm-none-eabi-5_2-2015q4/bin/../lib/gcc/arm-none-eabi/5.2.1/../../../../arm-none-eabi/lib/armv7e-m/libg_nano.a(lib_a-findfp.o)
                0x0000000008001c08                __sinit
 .text.__sfp    0x0000000008001c68       0x78 /usr/local/gcc-arm-none-eabi-5_2-2015q4/bin/../lib/gcc/arm-none-eabi/5.2.1/../../../../arm-none-eabi/lib/armv7e-m/libg_nano.a(lib_a-findfp.o)
                0x0000000008001c68                __sfp
 .text._fwalk_reent
                0x0000000008001ce0       0x3c /usr/local/gcc-arm-none-eabi-5_2-2015q4/bin/../lib/gcc/arm-none-eabi/5.2.1/../../../../arm-none-eabi/lib/armv7e-m/libg_nano.a(lib_a-fwalk.o)
                0x0000000008001ce0                _fwalk_reent
 .text._fwrite_r
                0x0000000008001d1c       0xb4 /usr/local/gcc-arm-none-eabi-5_2-2015q4/bin/../lib/gcc/arm-none-eabi/5.2.1/../../../../arm-none-eabi/lib/armv7e-m/libg_nano.a(lib_a-fwrite.o)
                0x0000000008001d1c                _fwrite_r
 .text.fwrite   0x0000000008001dd0       0x1c /usr/local/gcc-arm-none-eabi-5_2-2015q4/bin/../lib/gcc/arm-none-eabi/5.2.1/../../../../arm-none-eabi/lib/armv7e-m/libg_nano.a(lib_a-fwrite.o)
                0x0000000008001dd0                fwrite
 .text.memset   0x0000000008001dec       0x10 /usr/local/gcc-arm-none-eabi-5_2-2015q4/bin/../lib/gcc/arm-none-eabi/5.2.1/../../../../arm-none-eabi/lib/armv7e-m/libg_nano.a(lib_a-memset.o)
                0x0000000008001dec                memset
 .text._malloc_r
                0x0000000008001dfc       0xa8 /usr/local/gcc-arm-none-eabi-5_2-2015q4/bin/../lib/gcc/arm-none-eabi/5.2.1/../../../../arm-none-eabi/lib/armv7e-m/libg_nano.a(lib_a-nano-mallocr.o)
                0x0000000008001dfc                _malloc_r
 .text._puts_r  0x0000000008001ea4       0xf0 /usr/local/gcc-arm-none-eabi-5_2-2015q4/bin/../lib/gcc/arm-none-eabi/5.2.1/../../../../arm-none-eabi/lib/armv7e-m/libg_nano.a(lib_a-puts.o)
                0x0000000008001ea4                _puts_r
 .text.puts     0x0000000008001f94       0x10 /usr/local/gcc-arm-none-eabi-5_2-2015q4/bin/../lib/gcc/arm-none-eabi/5.2.1/../../../../arm-none-eabi/lib/armv7e-m/libg_nano.a(lib_a-puts.o)
                0x0000000008001f94                puts
 .text._sbrk_r  0x0000000008001fa4       0x20 /usr/local/gcc-arm-none-eabi-5_2-2015q4/bin/../lib/gcc/arm-none-eabi/5.2.1/../../../../arm-none-eabi/lib/armv7e-m/libg_nano.a(lib_a-sbrkr.o)
                0x0000000008001fa4                _sbrk_r
 .text.__sread  0x0000000008001fc4       0x22 /usr/local/gcc-arm-none-eabi-5_2-2015q4/bin/../lib/gcc/arm-none-eabi/5.2.1/../../../../arm-none-eabi/lib/armv7e-m/libg_nano.a(lib_a-stdio.o)
                0x0000000008001fc4                __sread
 .text.__swrite
                0x0000000008001fe6       0x38 /usr/local/gcc-arm-none-eabi-5_2-2015q4/bin/../lib/gcc/arm-none-eabi/5.2.1/../../../../arm-none-eabi/lib/armv7e-m/libg_nano.a(lib_a-stdio.o)
                0x0000000008001fe6                __swrite
 .text.__sseek  0x000000000800201e       0x24 /usr/local/gcc-arm-none-eabi-5_2-2015q4/bin/../lib/gcc/arm-none-eabi/5.2.1/../../../../arm-none-eabi/lib/armv7e-m/libg_nano.a(lib_a-stdio.o)
                0x000000000800201e                __sseek
 .text.__sclose
                0x0000000008002042        0x8 /usr/local/gcc-arm-none-eabi-5_2-2015q4/bin/../lib/gcc/arm-none-eabi/5.2.1/../../../../arm-none-eabi/lib/armv7e-m/libg_nano.a(lib_a-stdio.o)
                0x0000000008002042                __sclose
 .text          0x000000000800204a       0x14 /usr/local/gcc-arm-none-eabi-5_2-2015q4/bin/../lib/gcc/arm-none-eabi/5.2.1/../../../../arm-none-eabi/lib/armv7e-m/libg_nano.a(lib_a-strcmp.o)
                0x000000000800204a                strcmp
 .text          0x000000000800205e       0x10 /usr/local/gcc-arm-none-eabi-5_2-2015q4/bin/../lib/gcc/arm-none-eabi/5.2.1/../../../../arm-none-eabi/lib/armv7e-m/libg_nano.a(lib_a-strlen.o)
                0x000000000800205e                strlen
 *fill*         0x000000000800206e        0x2 
 .text._strtol_r
                0x0000000008002070      0x10c /usr/local/gcc-arm-none-eabi-5_2-2015q4/bin/../lib/gcc/arm-none-eabi/5.2.1/../../../../arm-none-eabi/lib/armv7e-m/libg_nano.a(lib_a-strtol.o)
                0x0000000008002070                _strtol_r
 .text.strtol   0x000000000800217c       0x14 /usr/local/gcc-arm-none-eabi-5_2-2015q4/bin/../lib/gcc/arm-none-eabi/5.2.1/../../../../arm-none-eabi/lib/armv7e-m/libg_nano.a(lib_a-strtol.o)
                0x000000000800217c                strtol
 .text._vsnprintf_r
                0x0000000008002190       0x56 /usr/local/gcc-arm-none-eabi-5_2-2015q4/bin/../lib/gcc/arm-none-eabi/5.2.1/../../../../arm-none-eabi/lib/armv7e-m/libg_nano.a(lib_a-vsnprintf.o)
                0x0000000008002190                _vsnprintf_r
                0x0000000008002190                _vsniprintf_r
 *fill*         0x00000000080021e6        0x2 
 .text.vsnprintf
                0x00000000080021e8       0x1c /usr/local/gcc-arm-none-eabi-5_2-2015q4/bin/../lib/gcc/arm-none-eabi/5.2.1/../../../../arm-none-eabi/lib/armv7e-m/libg_nano.a(lib_a-vsnprintf.o)
                0x00000000080021e8                vsnprintf
                0x00000000080021e8                vsniprintf
 .text.__swbuf_r
                0x0000000008002204       0xa8 /usr/local/gcc-arm-none-eabi-5_2-2015q4/bin/../lib/gcc/arm-none-eabi/5.2.1/../../../../arm-none-eabi/lib/armv7e-m/libg_nano.a(lib_a-wbuf.o)
                0x0000000008002204                __swbuf_r
 .text._write_r
                0x00000000080022ac       0x24 /usr/local/gcc-arm-none-eabi-5_2-2015q4/bin/../lib/gcc/arm-none-eabi/5.2.1/../../../../arm-none-eabi/lib/armv7e-m/libg_nano.a(lib_a-writer.o)
                0x00000000080022ac                _write_r
 .text.__swsetup_r
                0x00000000080022d0       0xd8 /usr/local/gcc-arm-none-eabi-5_2-2015q4/bin/../lib/gcc/arm-none-eabi/5.2.1/../../../../arm-none-eabi/lib/armv7e-m/libg_nano.a(lib_a-wsetup.o)
                0x00000000080022d0                __swsetup_r
 .text._close_r
                0x00000000080023a8       0x20 /usr/local/gcc-arm-none-eabi-5_2-2015q4/bin/../lib/gcc/arm-none-eabi/5.2.1/../../../../arm-none-eabi/lib/armv7e-m/libg_nano.a(lib_a-closer.o)
                0x00000000080023a8                _close_r
 .text.__sflush_r
                0x00000000080023c8      0x110 /usr/local/gcc-arm-none-eabi-5_2-2015q4/bin/../lib/gcc/arm-none-eabi/5.2.1/../../../../arm-none-eabi/lib/armv7e-m/libg_nano.a(lib_a-fflush.o)
                0x00000000080023c8                __sflush_r
 .text._fflush_r
                0x00000000080024d8       0x54 /usr/local/gcc-arm-none-eabi-5_2-2015q4/bin/../lib/gcc/arm-none-eabi/5.2.1/../../../../arm-none-eabi/lib/armv7e-m/libg_nano.a(lib_a-fflush.o)
                0x00000000080024d8                _fflush_r
 .text._lseek_r
                0x000000000800252c       0x24 /usr/local/gcc-arm-none-eabi-5_2-2015q4/bin/../lib/gcc/arm-none-eabi/5.2.1/../../../../arm-none-eabi/lib/armv7e-m/libg_nano.a(lib_a-lseekr.o)
                0x000000000800252c                _lseek_r
 .text.__smakebuf_r
                0x0000000008002550       0x9c /usr/local/gcc-arm-none-eabi-5_2-2015q4/bin/../lib/gcc/arm-none-eabi/5.2.1/../../../../arm-none-eabi/lib/armv7e-m/libg_nano.a(lib_a-makebuf.o)
                0x0000000008002550                __smakebuf_r
 .text._free_r  0x00000000080025ec       0x8c /usr/local/gcc-arm-none-eabi-5_2-2015q4/bin/../lib/gcc/arm-none-eabi/5.2.1/../../../../arm-none-eabi/lib/armv7e-m/libg_nano.a(lib_a-nano-freer.o)
                0x00000000080025ec                _free_r
 .text.__ssputs_r
                0x0000000008002678       0xb2 /usr/local/gcc-arm-none-eabi-5_2-2015q4/bin/../lib/gcc/arm-none-eabi/5.2.1/../../../../arm-none-eabi/lib/armv7e-m/libg_nano.a(lib_a-nano-svfprintf.o)
                0x0000000008002678                __ssputs_r
 *fill*         0x000000000800272a        0x2 
 .text._svfprintf_r
                0x000000000800272c      0x1e8 /usr/local/gcc-arm-none-eabi-5_2-2015q4/bin/../lib/gcc/arm-none-eabi/5.2.1/../../../../arm-none-eabi/lib/armv7e-m/libg_nano.a(lib_a-nano-svfprintf.o)
                0x000000000800272c                _svfprintf_r
                0x000000000800272c                _svfiprintf_r
 .text._printf_common
                0x0000000008002914       0xec /usr/local/gcc-arm-none-eabi-5_2-2015q4/bin/../lib/gcc/arm-none-eabi/5.2.1/../../../../arm-none-eabi/lib/armv7e-m/libg_nano.a(lib_a-nano-vfprintf_i.o)
                0x0000000008002914                _printf_common
 .text._printf_i
                0x0000000008002a00      0x24c /usr/local/gcc-arm-none-eabi-5_2-2015q4/bin/../lib/gcc/arm-none-eabi/5.2.1/../../../../arm-none-eabi/lib/armv7e-m/libg_nano.a(lib_a-nano-vfprintf_i.o)
                0x0000000008002a00                _printf_i
 .text._read_r  0x0000000008002c4c       0x24 /usr/local/gcc-arm-none-eabi-5_2-2015q4/bin/../lib/gcc/arm-none-eabi/5.2.1/../../../../arm-none-eabi/lib/armv7e-m/libg_nano.a(lib_a-readr.o)
                0x0000000008002c4c                _read_r
 .text._fstat_r
                0x0000000008002c70       0x24 /usr/local/gcc-arm-none-eabi-5_2-2015q4/bin/../lib/gcc/arm-none-eabi/5.2.1/../../../../arm-none-eabi/lib/armv7e-m/libg_nano.a(lib_a-fstatr.o)
                0x0000000008002c70                _fstat_r
 .text._isatty_r
                0x0000000008002c94       0x20 /usr/local/gcc-arm-none-eabi-5_2-2015q4/bin/../lib/gcc/arm-none-eabi/5.2.1/../../../../arm-none-eabi/lib/armv7e-m/libg_nano.a(lib_a-isattyr.o)
                0x0000000008002c94                _isatty_r
 *fill*         0x0000000008002cb4        0xc 
 .text          0x0000000008002cc0       0xa0 /usr/local/gcc-arm-none-eabi-5_2-2015q4/bin/../lib/gcc/arm-none-eabi/5.2.1/../../../../arm-none-eabi/lib/armv7e-m/libg_nano.a(lib_a-memchr.o)
                0x0000000008002cc0                memchr
 .text.memcpy   0x0000000008002d60       0x16 /usr/local/gcc-arm-none-eabi-5_2-2015q4/bin/../lib/gcc/arm-none-eabi/5.2.1/../../../../arm-none-eabi/lib/armv7e-m/libg_nano.a(lib_a-memcpy-stub.o)
                0x0000000008002d60                memcpy
 .text.memmove  0x0000000008002d76       0x36 /usr/local/gcc-arm-none-eabi-5_2-2015q4/bin/../lib/gcc/arm-none-eabi/5.2.1/../../../../arm-none-eabi/lib/armv7e-m/libg_nano.a(lib_a-memmove.o)
                0x0000000008002d76                memmove
 .text._realloc_r
                0x0000000008002dac       0x4c /usr/local/gcc-arm-none-eabi-5_2-2015q4/bin/../lib/gcc/arm-none-eabi/5.2.1/../../../../arm-none-eabi/lib/armv7e-m/libg_nano.a(lib_a-nano-reallocr.o)
                0x0000000008002dac                _realloc_r
 .text._malloc_usable_size_r
                0x0000000008002df8       0x14 /usr/local/gcc-arm-none-eabi-5_2-2015q4/bin/../lib/gcc/arm-none-eabi/5.2.1/../../../../arm-none-eabi/lib/armv7e-m/libg_nano.a(lib_a-nano-msizer.o)
                0x0000000008002df8                _malloc_usable_size_r
 *(.rodata .rodata.* .constdata .constdata.*)
 .rodata.str1.4
                0x0000000008002e0c       0x31 ./system/src/stm32f4-hal/stm32f4xx_hal_cortex.o
 *fill*         0x0000000008002e3d        0x3 
 .rodata.str1.4
                0x0000000008002e40       0x2f ./system/src/stm32f4-hal/stm32f4xx_hal_gpio.o
 *fill*         0x0000000008002e6f        0x1 
 .rodata.APBAHBPrescTable
                0x0000000008002e70       0x10 ./system/src/stm32f4-hal/stm32f4xx_hal_rcc.o
                0x0000000008002e70                APBAHBPrescTable
 .rodata.str1.4
                0x0000000008002e80       0x2e ./system/src/stm32f4-hal/stm32f4xx_hal_rcc.o
 *fill*         0x0000000008002eae        0x2 
 .rodata.str1.4
                0x0000000008002eb0       0x14 ./system/src/newlib/_exit.o
 .rodata.str1.4
                0x0000000008002ec4        0x9 ./system/src/newlib/_syscalls.o
 *fill*         0x0000000008002ecd        0x3 
 .rodata.str1.4
                0x0000000008002ed0       0x6b ./system/src/newlib/assert.o
                                         0x6f (size before relaxing)
 *fill*         0x0000000008002f3b        0x1 
 .rodata.str1.4
                0x0000000008002f3c       0x29 ./system/src/diag/Trace.o
                                         0x2d (size before relaxing)
 *fill*         0x0000000008002f65        0x3 
 .rodata.str1.4
                0x0000000008002f68      0x146 ./system/src/cortexm/exception_handlers.o
                                        0x14a (size before relaxing)
 *fill*         0x00000000080030ae        0x2 
 .rodata.AHBPrescTable
                0x00000000080030b0       0x10 ./system/src/cmsis/system_stm32f4xx.o
                0x00000000080030b0                AHBPrescTable
 .rodata.str1.4
                0x00000000080030c0       0x70 ./src/main.o
                                         0x6f (size before relaxing)
 .rodata._ctype_
                0x0000000008003130      0x101 /usr/local/gcc-arm-none-eabi-5_2-2015q4/bin/../lib/gcc/arm-none-eabi/5.2.1/../../../../arm-none-eabi/lib/armv7e-m/libg_nano.a(lib_a-ctype_.o)
                0x0000000008003130                _ctype_
 *fill*         0x0000000008003231        0x3 
 .rodata.__sf_fake_stdin
                0x0000000008003234       0x20 /usr/local/gcc-arm-none-eabi-5_2-2015q4/bin/../lib/gcc/arm-none-eabi/5.2.1/../../../../arm-none-eabi/lib/armv7e-m/libg_nano.a(lib_a-findfp.o)
                0x0000000008003234                __sf_fake_stdin
 .rodata.__sf_fake_stdout
                0x0000000008003254       0x20 /usr/local/gcc-arm-none-eabi-5_2-2015q4/bin/../lib/gcc/arm-none-eabi/5.2.1/../../../../arm-none-eabi/lib/armv7e-m/libg_nano.a(lib_a-findfp.o)
                0x0000000008003254                __sf_fake_stdout
 .rodata.__sf_fake_stderr
                0x0000000008003274       0x20 /usr/local/gcc-arm-none-eabi-5_2-2015q4/bin/../lib/gcc/arm-none-eabi/5.2.1/../../../../arm-none-eabi/lib/armv7e-m/libg_nano.a(lib_a-findfp.o)
                0x0000000008003274                __sf_fake_stderr
 .rodata.str1.1
                0x0000000008003294        0x2 /usr/local/gcc-arm-none-eabi-5_2-2015q4/bin/../lib/gcc/arm-none-eabi/5.2.1/../../../../arm-none-eabi/lib/armv7e-m/libg_nano.a(lib_a-impure.o)
 *fill*         0x0000000008003296        0x2 
 .rodata._global_impure_ptr
                0x0000000008003298        0x4 /usr/local/gcc-arm-none-eabi-5_2-2015q4/bin/../lib/gcc/arm-none-eabi/5.2.1/../../../../arm-none-eabi/lib/armv7e-m/libg_nano.a(lib_a-impure.o)
                0x0000000008003298                _global_impure_ptr
 .rodata.str1.1
                0x000000000800329c       0x11 /usr/local/gcc-arm-none-eabi-5_2-2015q4/bin/../lib/gcc/arm-none-eabi/5.2.1/../../../../arm-none-eabi/lib/armv7e-m/libg_nano.a(lib_a-nano-svfprintf.o)
 .rodata.str1.1
                0x00000000080032ad       0x22 /usr/local/gcc-arm-none-eabi-5_2-2015q4/bin/../lib/gcc/arm-none-eabi/5.2.1/../../../../arm-none-eabi/lib/armv7e-m/libg_nano.a(lib_a-nano-vfprintf_i.o)
 *(vtable)
 *(.eh_frame*)
 *(.glue_7)
 .glue_7        0x00000000080032cf        0x0 linker stubs
 *(.glue_7t)
 .glue_7t       0x00000000080032cf        0x0 linker stubs

.vfp11_veneer   0x00000000080032d0        0x0
 .vfp11_veneer  0x00000000080032d0        0x0 linker stubs

.v4_bx          0x00000000080032d0        0x0
 .v4_bx         0x00000000080032d0        0x0 linker stubs

.iplt           0x00000000080032d0        0x0
 .iplt          0x00000000080032d0        0x0 ./system/src/stm32f4-hal/stm32f4xx_hal.o

.rel.dyn        0x00000000080032d0        0x0
 .rel.iplt      0x00000000080032d0        0x0 ./system/src/stm32f4-hal/stm32f4xx_hal.o

.ARM.extab
 *(.ARM.extab* .gnu.linkonce.armextab.*)
                0x00000000080032d0                . = ALIGN (0x4)
                0x00000000080032d0                __exidx_start = .

.ARM.exidx
 *(.ARM.exidx* .gnu.linkonce.armexidx.*)
                0x00000000080032d0                __exidx_end = .
                0x00000000080032d0                . = ALIGN (0x4)
                0x00000000080032d0                _etext = .
                0x00000000080032d0                __etext = .

.data_CCMRAM    0x0000000010000000        0x0 load address 0x00000000080032d0
 FILL mask 0xff
 *(.data.CCMRAM .data.CCMRAM.*)
                0x0000000010000000                . = ALIGN (0x4)
                0x00000000080032d0                _sidata = LOADADDR (.data)

.data           0x0000000020000000       0x74 load address 0x00000000080032d0
 FILL mask 0xff
                0x0000000020000000                _sdata = .
                0x0000000020000000                __data_start__ = .
 *(.data_begin .data_begin.*)
 .data_begin    0x0000000020000000        0x4 ./system/src/newlib/_startup.o
 *(.data .data.*)
 .data.SystemCoreClock
                0x0000000020000004        0x4 ./system/src/cmsis/system_stm32f4xx.o
                0x0000000020000004                SystemCoreClock
 .data.__ctype_ptr__
                0x0000000020000008        0x4 /usr/local/gcc-arm-none-eabi-5_2-2015q4/bin/../lib/gcc/arm-none-eabi/5.2.1/../../../../arm-none-eabi/lib/armv7e-m/libg_nano.a(lib_a-ctype_.o)
                0x0000000020000008                __ctype_ptr__
 .data.impure_data
                0x000000002000000c       0x60 /usr/local/gcc-arm-none-eabi-5_2-2015q4/bin/../lib/gcc/arm-none-eabi/5.2.1/../../../../arm-none-eabi/lib/armv7e-m/libg_nano.a(lib_a-impure.o)
 .data._impure_ptr
                0x000000002000006c        0x4 /usr/local/gcc-arm-none-eabi-5_2-2015q4/bin/../lib/gcc/arm-none-eabi/5.2.1/../../../../arm-none-eabi/lib/armv7e-m/libg_nano.a(lib_a-impure.o)
                0x000000002000006c                _impure_ptr
 *(.data_end .data_end.*)
 .data_end      0x0000000020000070        0x4 ./system/src/newlib/_startup.o
                0x0000000020000074                . = ALIGN (0x4)
                0x0000000020000074                _edata = .
                0x0000000020000074                __data_end__ = .

.igot.plt       0x0000000020000074        0x0 load address 0x0000000008003344
 .igot.plt      0x0000000020000074        0x0 ./system/src/stm32f4-hal/stm32f4xx_hal.o

.bss_CCMRAM     0x0000000010000000        0x0
 *(.bss.CCMRAM .bss.CCMRAM.*)

.bss            0x0000000020000074      0x1c4
                0x0000000020000074                __bss_start__ = .
                0x0000000020000074                _sbss = .
 *(.bss_begin .bss_begin.*)
 .bss_begin     0x0000000020000074        0x4 ./system/src/newlib/_startup.o
 *(.bss .bss.*)
 .bss.current_heap_end.4422
                0x0000000020000078        0x4 ./system/src/newlib/_sbrk.o
 .bss.monitor_stdout
                0x000000002000007c        0x4 ./system/src/newlib/_syscalls.o
 .bss.monitor_stdin
                0x0000000020000080        0x4 ./system/src/newlib/_syscalls.o
 .bss.argv_buf.6129
                0x0000000020000084       0x28 ./system/src/newlib/_syscalls.o
 .bss.args_buf.6128
                0x00000000200000ac       0x50 ./system/src/newlib/_syscalls.o
 .bss.monitor_stderr
                0x00000000200000fc        0x4 ./system/src/newlib/_syscalls.o
 .bss.openfiles
                0x0000000020000100       0xa0 ./system/src/newlib/_syscalls.o
 .bss.buf.5558  0x00000000200001a0       0x80 ./system/src/diag/Trace.o
 .bss.__malloc_sbrk_start
                0x0000000020000220        0x4 /usr/local/gcc-arm-none-eabi-5_2-2015q4/bin/../lib/gcc/arm-none-eabi/5.2.1/../../../../arm-none-eabi/lib/armv7e-m/libg_nano.a(lib_a-nano-mallocr.o)
                0x0000000020000220                __malloc_sbrk_start
 .bss.__malloc_free_list
                0x0000000020000224        0x4 /usr/local/gcc-arm-none-eabi-5_2-2015q4/bin/../lib/gcc/arm-none-eabi/5.2.1/../../../../arm-none-eabi/lib/armv7e-m/libg_nano.a(lib_a-nano-mallocr.o)
                0x0000000020000224                __malloc_free_list
 *(COMMON)
 COMMON         0x0000000020000228        0x4 ./system/src/stm32f4-hal/stm32f4xx_hal.o
                0x0000000020000228                uwTick
 COMMON         0x000000002000022c        0x4 ./system/src/newlib/_syscalls.o
                0x000000002000022c                errno
 COMMON         0x0000000020000230        0x4 ./src/Timer.o
                0x0000000020000230                timer_delayCount
 *(.bss_end .bss_end.*)
 .bss_end       0x0000000020000234        0x4 ./system/src/newlib/_startup.o
                0x0000000020000238                . = ALIGN (0x4)
                0x0000000020000238                __bss_end__ = .
                0x0000000020000238                _ebss = .

.noinit_CCMRAM
 *(.noinit.CCMRAM .noinit.CCMRAM.*)

.noinit         0x0000000020000238        0x0
                0x0000000020000238                _noinit = .
 *(.noinit .noinit.*)
                0x0000000020000238                . = ALIGN (0x4)
                0x0000000020000238                _end_noinit = .
                [!provide]                        PROVIDE (end, _end_noinit)
                [!provide]                        PROVIDE (_end, _end_noinit)
                [!provide]                        PROVIDE (__end, _end_noinit)
                [!provide]                        PROVIDE (__end__, _end_noinit)

._check_stack   0x0000000020000238      0x100
                0x0000000020000338                . = (. + _Minimum_Stack_Size)
 *fill*         0x0000000020000238      0x100 

.b1text
 *(.b1text)
 *(.b1rodata)
 *(.b1rodata.*)

.eb0text
 *(.eb0text)
 *(.eb0rodata)
 *(.eb0rodata.*)

.eb1text
 *(.eb1text)
 *(.eb1rodata)
 *(.eb1rodata.*)

.eb2text
 *(.eb2text)
 *(.eb2rodata)
 *(.eb2rodata.*)

.eb3text
 *(.eb3text)
 *(.eb3rodata)
 *(.eb3rodata.*)

.stab
 *(.stab)

.stabstr
 *(.stabstr)

.stab.excl
 *(.stab.excl)

.stab.exclstr
 *(.stab.exclstr)

.stab.index
 *(.stab.index)

.stab.indexstr
 *(.stab.indexstr)

.comment        0x0000000000000000       0x6e
 *(.comment)
 .comment       0x0000000000000000       0x6e ./system/src/stm32f4-hal/stm32f4xx_hal.o
                                         0x6f (size before relaxing)
 .comment       0x000000000000006e       0x6f ./system/src/stm32f4-hal/stm32f4xx_hal_cortex.o
 .comment       0x000000000000006e       0x6f ./system/src/stm32f4-hal/stm32f4xx_hal_gpio.o
 .comment       0x000000000000006e       0x6f ./system/src/stm32f4-hal/stm32f4xx_hal_rcc.o
 .comment       0x000000000000006e       0x6f ./system/src/newlib/_exit.o
 .comment       0x000000000000006e       0x6f ./system/src/newlib/_sbrk.o
 .comment       0x000000000000006e       0x6f ./system/src/newlib/_startup.o
 .comment       0x000000000000006e       0x6f ./system/src/newlib/_syscalls.o
 .comment       0x000000000000006e       0x6f ./system/src/newlib/assert.o
 .comment       0x000000000000006e       0x6f ./system/src/diag/Trace.o
 .comment       0x000000000000006e       0x6f ./system/src/diag/trace_impl.o
 .comment       0x000000000000006e       0x6f ./system/src/cortexm/_initialize_hardware.o
 .comment       0x000000000000006e       0x6f ./system/src/cortexm/exception_handlers.o
 .comment       0x000000000000006e       0x6f ./system/src/cmsis/system_stm32f4xx.o
 .comment       0x000000000000006e       0x6f ./system/src/cmsis/vectors_stm32f407xx.o
 .comment       0x000000000000006e       0x6f ./src/BlinkLed.o
 .comment       0x000000000000006e       0x6f ./src/Timer.o
 .comment       0x000000000000006e       0x6f ./src/_initialize_hardware.o
 .comment       0x000000000000006e       0x6f ./src/main.o
 .comment       0x000000000000006e       0x6f ./src/stm32f4xx_hal_msp.o

.ARM.attributes
                0x0000000000000000       0x31
 .ARM.attributes
                0x0000000000000000       0x33 ./system/src/stm32f4-hal/stm32f4xx_hal.o
 .ARM.attributes
                0x0000000000000033       0x33 ./system/src/stm32f4-hal/stm32f4xx_hal_cortex.o
 .ARM.attributes
                0x0000000000000066       0x33 ./system/src/stm32f4-hal/stm32f4xx_hal_gpio.o
 .ARM.attributes
                0x0000000000000099       0x33 ./system/src/stm32f4-hal/stm32f4xx_hal_rcc.o
 .ARM.attributes
                0x00000000000000cc       0x33 ./system/src/newlib/_exit.o
 .ARM.attributes
                0x00000000000000ff       0x33 ./system/src/newlib/_sbrk.o
 .ARM.attributes
                0x0000000000000132       0x33 ./system/src/newlib/_startup.o
 .ARM.attributes
                0x0000000000000165       0x33 ./system/src/newlib/_syscalls.o
 .ARM.attributes
                0x0000000000000198       0x33 ./system/src/newlib/assert.o
 .ARM.attributes
                0x00000000000001cb       0x33 ./system/src/diag/Trace.o
 .ARM.attributes
                0x00000000000001fe       0x33 ./system/src/diag/trace_impl.o
 .ARM.attributes
                0x0000000000000231       0x33 ./system/src/cortexm/_initialize_hardware.o
 .ARM.attributes
                0x0000000000000264       0x33 ./system/src/cortexm/exception_handlers.o
 .ARM.attributes
                0x0000000000000297       0x33 ./system/src/cmsis/system_stm32f4xx.o
 .ARM.attributes
                0x00000000000002ca       0x33 ./system/src/cmsis/vectors_stm32f407xx.o
 .ARM.attributes
                0x00000000000002fd       0x33 ./src/BlinkLed.o
 .ARM.attributes
                0x0000000000000330       0x33 ./src/Timer.o
 .ARM.attributes
                0x0000000000000363       0x33 ./src/_initialize_hardware.o
 .ARM.attributes
                0x0000000000000396       0x33 ./src/main.o
 .ARM.attributes
                0x00000000000003c9       0x33 ./src/stm32f4xx_hal_msp.o
 .ARM.attributes
                0x00000000000003fc       0x2e /usr/local/gcc-arm-none-eabi-5_2-2015q4/bin/../lib/gcc/arm-none-eabi/5.2.1/../../../../arm-none-eabi/lib/armv7e-m/libg_nano.a(lib_a-atoi.o)
 .ARM.attributes
                0x000000000000042a       0x2e /usr/local/gcc-arm-none-eabi-5_2-2015q4/bin/../lib/gcc/arm-none-eabi/5.2.1/../../../../arm-none-eabi/lib/armv7e-m/libg_nano.a(lib_a-ctype_.o)
 .ARM.attributes
                0x0000000000000458       0x2e /usr/local/gcc-arm-none-eabi-5_2-2015q4/bin/../lib/gcc/arm-none-eabi/5.2.1/../../../../arm-none-eabi/lib/armv7e-m/libg_nano.a(lib_a-errno.o)
 .ARM.attributes
                0x0000000000000486       0x2e /usr/local/gcc-arm-none-eabi-5_2-2015q4/bin/../lib/gcc/arm-none-eabi/5.2.1/../../../../arm-none-eabi/lib/armv7e-m/libg_nano.a(lib_a-findfp.o)
 .ARM.attributes
                0x00000000000004b4       0x2e /usr/local/gcc-arm-none-eabi-5_2-2015q4/bin/../lib/gcc/arm-none-eabi/5.2.1/../../../../arm-none-eabi/lib/armv7e-m/libg_nano.a(lib_a-fwalk.o)
 .ARM.attributes
                0x00000000000004e2       0x2e /usr/local/gcc-arm-none-eabi-5_2-2015q4/bin/../lib/gcc/arm-none-eabi/5.2.1/../../../../arm-none-eabi/lib/armv7e-m/libg_nano.a(lib_a-fwrite.o)
 .ARM.attributes
                0x0000000000000510       0x2e /usr/local/gcc-arm-none-eabi-5_2-2015q4/bin/../lib/gcc/arm-none-eabi/5.2.1/../../../../arm-none-eabi/lib/armv7e-m/libg_nano.a(lib_a-impure.o)
 .ARM.attributes
                0x000000000000053e       0x2e /usr/local/gcc-arm-none-eabi-5_2-2015q4/bin/../lib/gcc/arm-none-eabi/5.2.1/../../../../arm-none-eabi/lib/armv7e-m/libg_nano.a(lib_a-memset.o)
 .ARM.attributes
                0x000000000000056c       0x2e /usr/local/gcc-arm-none-eabi-5_2-2015q4/bin/../lib/gcc/arm-none-eabi/5.2.1/../../../../arm-none-eabi/lib/armv7e-m/libg_nano.a(lib_a-nano-mallocr.o)
 .ARM.attributes
                0x000000000000059a       0x2e /usr/local/gcc-arm-none-eabi-5_2-2015q4/bin/../lib/gcc/arm-none-eabi/5.2.1/../../../../arm-none-eabi/lib/armv7e-m/libg_nano.a(lib_a-puts.o)
 .ARM.attributes
                0x00000000000005c8       0x2e /usr/local/gcc-arm-none-eabi-5_2-2015q4/bin/../lib/gcc/arm-none-eabi/5.2.1/../../../../arm-none-eabi/lib/armv7e-m/libg_nano.a(lib_a-sbrkr.o)
 .ARM.attributes
                0x00000000000005f6       0x2e /usr/local/gcc-arm-none-eabi-5_2-2015q4/bin/../lib/gcc/arm-none-eabi/5.2.1/../../../../arm-none-eabi/lib/armv7e-m/libg_nano.a(lib_a-stdio.o)
 .ARM.attributes
                0x0000000000000624       0x1c /usr/local/gcc-arm-none-eabi-5_2-2015q4/bin/../lib/gcc/arm-none-eabi/5.2.1/../../../../arm-none-eabi/lib/armv7e-m/libg_nano.a(lib_a-strcmp.o)
 .ARM.attributes
                0x0000000000000640       0x17 /usr/local/gcc-arm-none-eabi-5_2-2015q4/bin/../lib/gcc/arm-none-eabi/5.2.1/../../../../arm-none-eabi/lib/armv7e-m/libg_nano.a(lib_a-strlen.o)
 .ARM.attributes
                0x0000000000000657       0x2e /usr/local/gcc-arm-none-eabi-5_2-2015q4/bin/../lib/gcc/arm-none-eabi/5.2.1/../../../../arm-none-eabi/lib/armv7e-m/libg_nano.a(lib_a-strtol.o)
 .ARM.attributes
                0x0000000000000685       0x2e /usr/local/gcc-arm-none-eabi-5_2-2015q4/bin/../lib/gcc/arm-none-eabi/5.2.1/../../../../arm-none-eabi/lib/armv7e-m/libg_nano.a(lib_a-vsnprintf.o)
 .ARM.attributes
                0x00000000000006b3       0x2e /usr/local/gcc-arm-none-eabi-5_2-2015q4/bin/../lib/gcc/arm-none-eabi/5.2.1/../../../../arm-none-eabi/lib/armv7e-m/libg_nano.a(lib_a-wbuf.o)
 .ARM.attributes
                0x00000000000006e1       0x2e /usr/local/gcc-arm-none-eabi-5_2-2015q4/bin/../lib/gcc/arm-none-eabi/5.2.1/../../../../arm-none-eabi/lib/armv7e-m/libg_nano.a(lib_a-writer.o)
 .ARM.attributes
                0x000000000000070f       0x2e /usr/local/gcc-arm-none-eabi-5_2-2015q4/bin/../lib/gcc/arm-none-eabi/5.2.1/../../../../arm-none-eabi/lib/armv7e-m/libg_nano.a(lib_a-wsetup.o)
 .ARM.attributes
                0x000000000000073d       0x2e /usr/local/gcc-arm-none-eabi-5_2-2015q4/bin/../lib/gcc/arm-none-eabi/5.2.1/../../../../arm-none-eabi/lib/armv7e-m/libg_nano.a(lib_a-closer.o)
 .ARM.attributes
                0x000000000000076b       0x2e /usr/local/gcc-arm-none-eabi-5_2-2015q4/bin/../lib/gcc/arm-none-eabi/5.2.1/../../../../arm-none-eabi/lib/armv7e-m/libg_nano.a(lib_a-fflush.o)
 .ARM.attributes
                0x0000000000000799       0x2e /usr/local/gcc-arm-none-eabi-5_2-2015q4/bin/../lib/gcc/arm-none-eabi/5.2.1/../../../../arm-none-eabi/lib/armv7e-m/libg_nano.a(lib_a-lseekr.o)
 .ARM.attributes
                0x00000000000007c7       0x2e /usr/local/gcc-arm-none-eabi-5_2-2015q4/bin/../lib/gcc/arm-none-eabi/5.2.1/../../../../arm-none-eabi/lib/armv7e-m/libg_nano.a(lib_a-makebuf.o)
 .ARM.attributes
                0x00000000000007f5       0x2e /usr/local/gcc-arm-none-eabi-5_2-2015q4/bin/../lib/gcc/arm-none-eabi/5.2.1/../../../../arm-none-eabi/lib/armv7e-m/libg_nano.a(lib_a-nano-freer.o)
 .ARM.attributes
                0x0000000000000823       0x2e /usr/local/gcc-arm-none-eabi-5_2-2015q4/bin/../lib/gcc/arm-none-eabi/5.2.1/../../../../arm-none-eabi/lib/armv7e-m/libg_nano.a(lib_a-nano-svfprintf.o)
 .ARM.attributes
                0x0000000000000851       0x2e /usr/local/gcc-arm-none-eabi-5_2-2015q4/bin/../lib/gcc/arm-none-eabi/5.2.1/../../../../arm-none-eabi/lib/armv7e-m/libg_nano.a(lib_a-nano-vfprintf_i.o)
 .ARM.attributes
                0x000000000000087f       0x2e /usr/local/gcc-arm-none-eabi-5_2-2015q4/bin/../lib/gcc/arm-none-eabi/5.2.1/../../../../arm-none-eabi/lib/armv7e-m/libg_nano.a(lib_a-readr.o)
 .ARM.attributes
                0x00000000000008ad       0x2e /usr/local/gcc-arm-none-eabi-5_2-2015q4/bin/../lib/gcc/arm-none-eabi/5.2.1/../../../../arm-none-eabi/lib/armv7e-m/libg_nano.a(lib_a-fstatr.o)
 .ARM.attributes
                0x00000000000008db       0x2e /usr/local/gcc-arm-none-eabi-5_2-2015q4/bin/../lib/gcc/arm-none-eabi/5.2.1/../../../../arm-none-eabi/lib/armv7e-m/libg_nano.a(lib_a-isattyr.o)
 .ARM.attributes
                0x0000000000000909       0x1c /usr/local/gcc-arm-none-eabi-5_2-2015q4/bin/../lib/gcc/arm-none-eabi/5.2.1/../../../../arm-none-eabi/lib/armv7e-m/libg_nano.a(lib_a-memchr.o)
 .ARM.attributes
                0x0000000000000925       0x2e /usr/local/gcc-arm-none-eabi-5_2-2015q4/bin/../lib/gcc/arm-none-eabi/5.2.1/../../../../arm-none-eabi/lib/armv7e-m/libg_nano.a(lib_a-memcpy-stub.o)
 .ARM.attributes
                0x0000000000000953       0x2e /usr/local/gcc-arm-none-eabi-5_2-2015q4/bin/../lib/gcc/arm-none-eabi/5.2.1/../../../../arm-none-eabi/lib/armv7e-m/libg_nano.a(lib_a-memmove.o)
 .ARM.attributes
                0x0000000000000981       0x2e /usr/local/gcc-arm-none-eabi-5_2-2015q4/bin/../lib/gcc/arm-none-eabi/5.2.1/../../../../arm-none-eabi/lib/armv7e-m/libg_nano.a(lib_a-nano-reallocr.o)
 .ARM.attributes
                0x00000000000009af       0x2e /usr/local/gcc-arm-none-eabi-5_2-2015q4/bin/../lib/gcc/arm-none-eabi/5.2.1/../../../../arm-none-eabi/lib/armv7e-m/libg_nano.a(lib_a-nano-msizer.o)

.debug
 *(.debug)

.line
 *(.line)

.debug_srcinfo
 *(.debug_srcinfo)

.debug_sfnames
 *(.debug_sfnames)

.debug_aranges  0x0000000000000000      0x648
 *(.debug_aranges)
 .debug_aranges
                0x0000000000000000       0xc0 ./system/src/stm32f4-hal/stm32f4xx_hal.o
 .debug_aranges
                0x00000000000000c0       0x98 ./system/src/stm32f4-hal/stm32f4xx_hal_cortex.o
 .debug_aranges
                0x0000000000000158       0x58 ./system/src/stm32f4-hal/stm32f4xx_hal_gpio.o
 .debug_aranges
                0x00000000000001b0       0x88 ./system/src/stm32f4-hal/stm32f4xx_hal_rcc.o
 .debug_aranges
                0x0000000000000238       0x28 ./system/src/newlib/_exit.o
 .debug_aranges
                0x0000000000000260       0x20 ./system/src/newlib/_sbrk.o
 .debug_aranges
                0x0000000000000280       0x40 ./system/src/newlib/_startup.o
 .debug_aranges
                0x00000000000002c0      0x120 ./system/src/newlib/_syscalls.o
 .debug_aranges
                0x00000000000003e0       0x28 ./system/src/newlib/assert.o
 .debug_aranges
                0x0000000000000408       0x38 ./system/src/diag/Trace.o
 .debug_aranges
                0x0000000000000440       0x30 ./system/src/diag/trace_impl.o
 .debug_aranges
                0x0000000000000470       0x28 ./system/src/cortexm/_initialize_hardware.o
 .debug_aranges
                0x0000000000000498       0x90 ./system/src/cortexm/exception_handlers.o
 .debug_aranges
                0x0000000000000528       0x28 ./system/src/cmsis/system_stm32f4xx.o
 .debug_aranges
                0x0000000000000550       0x20 ./system/src/cmsis/vectors_stm32f407xx.o
 .debug_aranges
                0x0000000000000570       0x20 ./src/BlinkLed.o
 .debug_aranges
                0x0000000000000590       0x38 ./src/Timer.o
 .debug_aranges
                0x00000000000005c8       0x28 ./src/_initialize_hardware.o
 .debug_aranges
                0x00000000000005f0       0x20 ./src/main.o
 .debug_aranges
                0x0000000000000610       0x38 ./src/stm32f4xx_hal_msp.o

.debug_pubnames
 *(.debug_pubnames)

.debug_info     0x0000000000000000     0x8e2d
 *(.debug_info .gnu.linkonce.wi.*)
 .debug_info    0x0000000000000000      0x8f9 ./system/src/stm32f4-hal/stm32f4xx_hal.o
 .debug_info    0x00000000000008f9     0x110b ./system/src/stm32f4-hal/stm32f4xx_hal_cortex.o
 .debug_info    0x0000000000001a04      0x886 ./system/src/stm32f4-hal/stm32f4xx_hal_gpio.o
 .debug_info    0x000000000000228a      0xf59 ./system/src/stm32f4-hal/stm32f4xx_hal_rcc.o
 .debug_info    0x00000000000031e3       0xef ./system/src/newlib/_exit.o
 .debug_info    0x00000000000032d2      0x11f ./system/src/newlib/_sbrk.o
 .debug_info    0x00000000000033f1      0x4fa ./system/src/newlib/_startup.o
 .debug_info    0x00000000000038eb     0x1ebd ./system/src/newlib/_syscalls.o
 .debug_info    0x00000000000057a8      0x1b9 ./system/src/newlib/assert.o
 .debug_info    0x0000000000005961      0x2e7 ./system/src/diag/Trace.o
 .debug_info    0x0000000000005c48      0x315 ./system/src/diag/trace_impl.o
 .debug_info    0x0000000000005f5d      0x2cb ./system/src/cortexm/_initialize_hardware.o
 .debug_info    0x0000000000006228      0x9a9 ./system/src/cortexm/exception_handlers.o
 .debug_info    0x0000000000006bd1      0x4b0 ./system/src/cmsis/system_stm32f4xx.o
 .debug_info    0x0000000000007081       0xd1 ./system/src/cmsis/vectors_stm32f407xx.o
 .debug_info    0x0000000000007152      0x3f2 ./src/BlinkLed.o
 .debug_info    0x0000000000007544      0x744 ./src/Timer.o
 .debug_info    0x0000000000007c88      0x50a ./src/_initialize_hardware.o
 .debug_info    0x0000000000008192      0xbab ./src/main.o
 .debug_info    0x0000000000008d3d       0xf0 ./src/stm32f4xx_hal_msp.o

.debug_abbrev   0x0000000000000000     0x216c
 *(.debug_abbrev)
 .debug_abbrev  0x0000000000000000      0x224 ./system/src/stm32f4-hal/stm32f4xx_hal.o
 .debug_abbrev  0x0000000000000224      0x324 ./system/src/stm32f4-hal/stm32f4xx_hal_cortex.o
 .debug_abbrev  0x0000000000000548      0x204 ./system/src/stm32f4-hal/stm32f4xx_hal_gpio.o
 .debug_abbrev  0x000000000000074c      0x2b8 ./system/src/stm32f4-hal/stm32f4xx_hal_rcc.o
 .debug_abbrev  0x0000000000000a04       0x8e ./system/src/newlib/_exit.o
 .debug_abbrev  0x0000000000000a92       0xb9 ./system/src/newlib/_sbrk.o
 .debug_abbrev  0x0000000000000b4b      0x1d4 ./system/src/newlib/_startup.o
 .debug_abbrev  0x0000000000000d1f      0x41e ./system/src/newlib/_syscalls.o
 .debug_abbrev  0x000000000000113d       0xab ./system/src/newlib/assert.o
 .debug_abbrev  0x00000000000011e8      0x156 ./system/src/diag/Trace.o
 .debug_abbrev  0x000000000000133e      0x1c8 ./system/src/diag/trace_impl.o
 .debug_abbrev  0x0000000000001506       0xea ./system/src/cortexm/_initialize_hardware.o
 .debug_abbrev  0x00000000000015f0      0x286 ./system/src/cortexm/exception_handlers.o
 .debug_abbrev  0x0000000000001876      0x104 ./system/src/cmsis/system_stm32f4xx.o
 .debug_abbrev  0x000000000000197a       0x9d ./system/src/cmsis/vectors_stm32f407xx.o
 .debug_abbrev  0x0000000000001a17      0x152 ./src/BlinkLed.o
 .debug_abbrev  0x0000000000001b69      0x1cf ./src/Timer.o
 .debug_abbrev  0x0000000000001d38      0x14c ./src/_initialize_hardware.o
 .debug_abbrev  0x0000000000001e84      0x27e ./src/main.o
 .debug_abbrev  0x0000000000002102       0x6a ./src/stm32f4xx_hal_msp.o

.debug_line     0x0000000000000000     0xa650
 *(.debug_line)
 .debug_line    0x0000000000000000      0xb38 ./system/src/stm32f4-hal/stm32f4xx_hal.o
 .debug_line    0x0000000000000b38      0xc1b ./system/src/stm32f4-hal/stm32f4xx_hal_cortex.o
 .debug_line    0x0000000000001753      0xccc ./system/src/stm32f4-hal/stm32f4xx_hal_gpio.o
 .debug_line    0x000000000000241f      0xdea ./system/src/stm32f4-hal/stm32f4xx_hal_rcc.o
 .debug_line    0x0000000000003209      0x2ca ./system/src/newlib/_exit.o
 .debug_line    0x00000000000034d3      0x27c ./system/src/newlib/_sbrk.o
 .debug_line    0x000000000000374f      0x34d ./system/src/newlib/_startup.o
 .debug_line    0x0000000000003a9c      0x806 ./system/src/newlib/_syscalls.o
 .debug_line    0x00000000000042a2      0x30e ./system/src/newlib/assert.o
 .debug_line    0x00000000000045b0      0x329 ./system/src/diag/Trace.o
 .debug_line    0x00000000000048d9      0xa73 ./system/src/diag/trace_impl.o
 .debug_line    0x000000000000534c      0x9dc ./system/src/cortexm/_initialize_hardware.o
 .debug_line    0x0000000000005d28      0xb45 ./system/src/cortexm/exception_handlers.o
 .debug_line    0x000000000000686d      0x9dc ./system/src/cmsis/system_stm32f4xx.o
 .debug_line    0x0000000000007249      0x1f2 ./system/src/cmsis/vectors_stm32f407xx.o
 .debug_line    0x000000000000743b      0x9ba ./src/BlinkLed.o
 .debug_line    0x0000000000007df5      0xa30 ./src/Timer.o
 .debug_line    0x0000000000008825      0x9d5 ./src/_initialize_hardware.o
 .debug_line    0x00000000000091fa      0xa80 ./src/main.o
 .debug_line    0x0000000000009c7a      0x9d6 ./src/stm32f4xx_hal_msp.o

.debug_frame    0x0000000000000000     0x1640
 *(.debug_frame)
 .debug_frame   0x0000000000000000      0x188 ./system/src/stm32f4-hal/stm32f4xx_hal.o
 .debug_frame   0x0000000000000188      0x17c ./system/src/stm32f4-hal/stm32f4xx_hal_cortex.o
 .debug_frame   0x0000000000000304       0xf8 ./system/src/stm32f4-hal/stm32f4xx_hal_gpio.o
 .debug_frame   0x00000000000003fc      0x158 ./system/src/stm32f4-hal/stm32f4xx_hal_rcc.o
 .debug_frame   0x0000000000000554       0x38 ./system/src/newlib/_exit.o
 .debug_frame   0x000000000000058c       0x28 ./system/src/newlib/_sbrk.o
 .debug_frame   0x00000000000005b4       0x7c ./system/src/newlib/_startup.o
 .debug_frame   0x0000000000000630      0x3d0 ./system/src/newlib/_syscalls.o
 .debug_frame   0x0000000000000a00       0x40 ./system/src/newlib/assert.o
 .debug_frame   0x0000000000000a40       0x94 ./system/src/diag/Trace.o
 .debug_frame   0x0000000000000ad4       0x60 ./system/src/diag/trace_impl.o
 .debug_frame   0x0000000000000b34       0x40 ./system/src/cortexm/_initialize_hardware.o
 .debug_frame   0x0000000000000b74      0x164 ./system/src/cortexm/exception_handlers.o
 .debug_frame   0x0000000000000cd8       0x30 ./system/src/cmsis/system_stm32f4xx.o
 .debug_frame   0x0000000000000d08       0x20 ./system/src/cmsis/vectors_stm32f407xx.o
 .debug_frame   0x0000000000000d28       0x30 ./src/BlinkLed.o
 .debug_frame   0x0000000000000d58       0x58 ./src/Timer.o
 .debug_frame   0x0000000000000db0       0x48 ./src/_initialize_hardware.o
 .debug_frame   0x0000000000000df8       0x2c ./src/main.o
 .debug_frame   0x0000000000000e24       0x50 ./src/stm32f4xx_hal_msp.o
 .debug_frame   0x0000000000000e74       0x30 /usr/local/gcc-arm-none-eabi-5_2-2015q4/bin/../lib/gcc/arm-none-eabi/5.2.1/../../../../arm-none-eabi/lib/armv7e-m/libg_nano.a(lib_a-atoi.o)
 .debug_frame   0x0000000000000ea4       0x20 /usr/local/gcc-arm-none-eabi-5_2-2015q4/bin/../lib/gcc/arm-none-eabi/5.2.1/../../../../arm-none-eabi/lib/armv7e-m/libg_nano.a(lib_a-errno.o)
 .debug_frame   0x0000000000000ec4      0x11c /usr/local/gcc-arm-none-eabi-5_2-2015q4/bin/../lib/gcc/arm-none-eabi/5.2.1/../../../../arm-none-eabi/lib/armv7e-m/libg_nano.a(lib_a-findfp.o)
 .debug_frame   0x0000000000000fe0       0x54 /usr/local/gcc-arm-none-eabi-5_2-2015q4/bin/../lib/gcc/arm-none-eabi/5.2.1/../../../../arm-none-eabi/lib/armv7e-m/libg_nano.a(lib_a-fwalk.o)
 .debug_frame   0x0000000000001034       0x4c /usr/local/gcc-arm-none-eabi-5_2-2015q4/bin/../lib/gcc/arm-none-eabi/5.2.1/../../../../arm-none-eabi/lib/armv7e-m/libg_nano.a(lib_a-fwrite.o)
 .debug_frame   0x0000000000001080       0x20 /usr/local/gcc-arm-none-eabi-5_2-2015q4/bin/../lib/gcc/arm-none-eabi/5.2.1/../../../../arm-none-eabi/lib/armv7e-m/libg_nano.a(lib_a-memset.o)
 .debug_frame   0x00000000000010a0       0x2c /usr/local/gcc-arm-none-eabi-5_2-2015q4/bin/../lib/gcc/arm-none-eabi/5.2.1/../../../../arm-none-eabi/lib/armv7e-m/libg_nano.a(lib_a-nano-mallocr.o)
 .debug_frame   0x00000000000010cc       0x3c /usr/local/gcc-arm-none-eabi-5_2-2015q4/bin/../lib/gcc/arm-none-eabi/5.2.1/../../../../arm-none-eabi/lib/armv7e-m/libg_nano.a(lib_a-puts.o)
 .debug_frame   0x0000000000001108       0x2c /usr/local/gcc-arm-none-eabi-5_2-2015q4/bin/../lib/gcc/arm-none-eabi/5.2.1/../../../../arm-none-eabi/lib/armv7e-m/libg_nano.a(lib_a-sbrkr.o)
 .debug_frame   0x0000000000001134       0x88 /usr/local/gcc-arm-none-eabi-5_2-2015q4/bin/../lib/gcc/arm-none-eabi/5.2.1/../../../../arm-none-eabi/lib/armv7e-m/libg_nano.a(lib_a-stdio.o)
 .debug_frame   0x00000000000011bc       0x20 /usr/local/gcc-arm-none-eabi-5_2-2015q4/bin/../lib/gcc/arm-none-eabi/5.2.1/../../../../arm-none-eabi/lib/armv7e-m/libg_nano.a(lib_a-strcmp.o)
 .debug_frame   0x00000000000011dc       0x44 /usr/local/gcc-arm-none-eabi-5_2-2015q4/bin/../lib/gcc/arm-none-eabi/5.2.1/../../../../arm-none-eabi/lib/armv7e-m/libg_nano.a(lib_a-strtol.o)
 .debug_frame   0x0000000000001220       0x48 /usr/local/gcc-arm-none-eabi-5_2-2015q4/bin/../lib/gcc/arm-none-eabi/5.2.1/../../../../arm-none-eabi/lib/armv7e-m/libg_nano.a(lib_a-vsnprintf.o)
 .debug_frame   0x0000000000001268       0x40 /usr/local/gcc-arm-none-eabi-5_2-2015q4/bin/../lib/gcc/arm-none-eabi/5.2.1/../../../../arm-none-eabi/lib/armv7e-m/libg_nano.a(lib_a-wbuf.o)
 .debug_frame   0x00000000000012a8       0x2c /usr/local/gcc-arm-none-eabi-5_2-2015q4/bin/../lib/gcc/arm-none-eabi/5.2.1/../../../../arm-none-eabi/lib/armv7e-m/libg_nano.a(lib_a-writer.o)
 .debug_frame   0x00000000000012d4       0x2c /usr/local/gcc-arm-none-eabi-5_2-2015q4/bin/../lib/gcc/arm-none-eabi/5.2.1/../../../../arm-none-eabi/lib/armv7e-m/libg_nano.a(lib_a-wsetup.o)
 .debug_frame   0x0000000000001300       0x2c /usr/local/gcc-arm-none-eabi-5_2-2015q4/bin/../lib/gcc/arm-none-eabi/5.2.1/../../../../arm-none-eabi/lib/armv7e-m/libg_nano.a(lib_a-closer.o)
 .debug_frame   0x000000000000132c       0x68 /usr/local/gcc-arm-none-eabi-5_2-2015q4/bin/../lib/gcc/arm-none-eabi/5.2.1/../../../../arm-none-eabi/lib/armv7e-m/libg_nano.a(lib_a-fflush.o)
 .debug_frame   0x0000000000001394       0x2c /usr/local/gcc-arm-none-eabi-5_2-2015q4/bin/../lib/gcc/arm-none-eabi/5.2.1/../../../../arm-none-eabi/lib/armv7e-m/libg_nano.a(lib_a-lseekr.o)
 .debug_frame   0x00000000000013c0       0x34 /usr/local/gcc-arm-none-eabi-5_2-2015q4/bin/../lib/gcc/arm-none-eabi/5.2.1/../../../../arm-none-eabi/lib/armv7e-m/libg_nano.a(lib_a-makebuf.o)
 .debug_frame   0x00000000000013f4       0x2c /usr/local/gcc-arm-none-eabi-5_2-2015q4/bin/../lib/gcc/arm-none-eabi/5.2.1/../../../../arm-none-eabi/lib/armv7e-m/libg_nano.a(lib_a-nano-freer.o)
 .debug_frame   0x0000000000001420       0x90 /usr/local/gcc-arm-none-eabi-5_2-2015q4/bin/../lib/gcc/arm-none-eabi/5.2.1/../../../../arm-none-eabi/lib/armv7e-m/libg_nano.a(lib_a-nano-svfprintf.o)
 .debug_frame   0x00000000000014b0       0x60 /usr/local/gcc-arm-none-eabi-5_2-2015q4/bin/../lib/gcc/arm-none-eabi/5.2.1/../../../../arm-none-eabi/lib/armv7e-m/libg_nano.a(lib_a-nano-vfprintf_i.o)
 .debug_frame   0x0000000000001510       0x2c /usr/local/gcc-arm-none-eabi-5_2-2015q4/bin/../lib/gcc/arm-none-eabi/5.2.1/../../../../arm-none-eabi/lib/armv7e-m/libg_nano.a(lib_a-readr.o)
 .debug_frame   0x000000000000153c       0x2c /usr/local/gcc-arm-none-eabi-5_2-2015q4/bin/../lib/gcc/arm-none-eabi/5.2.1/../../../../arm-none-eabi/lib/armv7e-m/libg_nano.a(lib_a-fstatr.o)
 .debug_frame   0x0000000000001568       0x2c /usr/local/gcc-arm-none-eabi-5_2-2015q4/bin/../lib/gcc/arm-none-eabi/5.2.1/../../../../arm-none-eabi/lib/armv7e-m/libg_nano.a(lib_a-isattyr.o)
 .debug_frame   0x0000000000001594       0x28 /usr/local/gcc-arm-none-eabi-5_2-2015q4/bin/../lib/gcc/arm-none-eabi/5.2.1/../../../../arm-none-eabi/lib/armv7e-m/libg_nano.a(lib_a-memcpy-stub.o)
 .debug_frame   0x00000000000015bc       0x28 /usr/local/gcc-arm-none-eabi-5_2-2015q4/bin/../lib/gcc/arm-none-eabi/5.2.1/../../../../arm-none-eabi/lib/armv7e-m/libg_nano.a(lib_a-memmove.o)
 .debug_frame   0x00000000000015e4       0x3c /usr/local/gcc-arm-none-eabi-5_2-2015q4/bin/../lib/gcc/arm-none-eabi/5.2.1/../../../../arm-none-eabi/lib/armv7e-m/libg_nano.a(lib_a-nano-reallocr.o)
 .debug_frame   0x0000000000001620       0x20 /usr/local/gcc-arm-none-eabi-5_2-2015q4/bin/../lib/gcc/arm-none-eabi/5.2.1/../../../../arm-none-eabi/lib/armv7e-m/libg_nano.a(lib_a-nano-msizer.o)

.debug_str      0x0000000000000000    0xa772c
 *(.debug_str)
 .debug_str     0x0000000000000000    0xa2e5d ./system/src/stm32f4-hal/stm32f4xx_hal.o
                                      0xa31f3 (size before relaxing)
 .debug_str     0x00000000000a2e5d      0x39a ./system/src/stm32f4-hal/stm32f4xx_hal_cortex.o
                                      0xa3070 (size before relaxing)
 .debug_str     0x00000000000a31f7      0x2dd ./system/src/stm32f4-hal/stm32f4xx_hal_gpio.o
                                      0xa2a81 (size before relaxing)
 .debug_str     0x00000000000a34d4      0x394 ./system/src/stm32f4-hal/stm32f4xx_hal_rcc.o
                                      0xa2c1f (size before relaxing)
 .debug_str     0x00000000000a3868     0x108b ./system/src/newlib/_exit.o
                                       0x6a09 (size before relaxing)
 .debug_str     0x00000000000a48f3      0x4de ./system/src/newlib/_sbrk.o
                                       0x5e1a (size before relaxing)
 .debug_str     0x00000000000a4dd1      0x2c6 ./system/src/newlib/_startup.o
                                       0x59e4 (size before relaxing)
 .debug_str     0x00000000000a5097     0x1e1f ./system/src/newlib/_syscalls.o
                                       0x9ea9 (size before relaxing)
 .debug_str     0x00000000000a6eb6       0xd0 ./system/src/newlib/assert.o
                                       0x74e3 (size before relaxing)
 .debug_str     0x00000000000a6f86      0x168 ./system/src/diag/Trace.o
                                       0x7319 (size before relaxing)
 .debug_str     0x00000000000a70ee       0xa2 ./system/src/diag/trace_impl.o
                                      0xa3909 (size before relaxing)
 .debug_str     0x00000000000a7190       0x5e ./system/src/cortexm/_initialize_hardware.o
                                      0xa2725 (size before relaxing)
 .debug_str     0x00000000000a71ee      0x1dc ./system/src/cortexm/exception_handlers.o
                                      0xa3aff (size before relaxing)
 .debug_str     0x00000000000a73ca       0x46 ./system/src/cmsis/system_stm32f4xx.o
                                      0xa2804 (size before relaxing)
 .debug_str     0x00000000000a7410       0x59 ./system/src/cmsis/vectors_stm32f407xx.o
                                       0x3275 (size before relaxing)
 .debug_str     0x00000000000a7469      0x12f ./src/BlinkLed.o
                                      0xa28d0 (size before relaxing)
 .debug_str     0x00000000000a7598       0x76 ./src/Timer.o
                                      0xa2d24 (size before relaxing)
 .debug_str     0x00000000000a760e       0x31 ./src/_initialize_hardware.o
                                      0xa290a (size before relaxing)
 .debug_str     0x00000000000a763f       0xb0 ./src/main.o
                                      0xa3ce8 (size before relaxing)
 .debug_str     0x00000000000a76ef       0x3d ./src/stm32f4xx_hal_msp.o
                                      0xa264f (size before relaxing)

.debug_loc      0x0000000000000000     0x2d60
 *(.debug_loc)
 .debug_loc     0x0000000000000000       0x92 ./system/src/stm32f4-hal/stm32f4xx_hal.o
 .debug_loc     0x0000000000000092      0x580 ./system/src/stm32f4-hal/stm32f4xx_hal_cortex.o
 .debug_loc     0x0000000000000612      0x4b0 ./system/src/stm32f4-hal/stm32f4xx_hal_gpio.o
 .debug_loc     0x0000000000000ac2      0x57a ./system/src/stm32f4-hal/stm32f4xx_hal_rcc.o
 .debug_loc     0x000000000000103c       0x82 ./system/src/newlib/_sbrk.o
 .debug_loc     0x00000000000010be      0x36e ./system/src/newlib/_startup.o
 .debug_loc     0x000000000000142c      0xf15 ./system/src/newlib/_syscalls.o
 .debug_loc     0x0000000000002341      0x110 ./system/src/newlib/assert.o
 .debug_loc     0x0000000000002451      0x102 ./system/src/diag/Trace.o
 .debug_loc     0x0000000000002553      0x17c ./system/src/diag/trace_impl.o
 .debug_loc     0x00000000000026cf      0x43a ./system/src/cortexm/exception_handlers.o
 .debug_loc     0x0000000000002b09      0x132 ./system/src/cmsis/system_stm32f4xx.o
 .debug_loc     0x0000000000002c3b       0x59 ./src/Timer.o
 .debug_loc     0x0000000000002c94       0xcc ./src/main.o

.debug_macinfo
 *(.debug_macinfo)

.debug_weaknames
 *(.debug_weaknames)

.debug_funcnames
 *(.debug_funcnames)

.debug_typenames
 *(.debug_typenames)

.debug_varnames
 *(.debug_varnames)
OUTPUT(qemu_extrenal_test.elf elf32-littlearm)

.debug_ranges   0x0000000000000000      0x588
 .debug_ranges  0x0000000000000000       0xb0 ./system/src/stm32f4-hal/stm32f4xx_hal.o
 .debug_ranges  0x00000000000000b0       0x88 ./system/src/stm32f4-hal/stm32f4xx_hal_cortex.o
 .debug_ranges  0x0000000000000138       0x48 ./system/src/stm32f4-hal/stm32f4xx_hal_gpio.o
 .debug_ranges  0x0000000000000180       0x78 ./system/src/stm32f4-hal/stm32f4xx_hal_rcc.o
 .debug_ranges  0x00000000000001f8       0x18 ./system/src/newlib/_exit.o
 .debug_ranges  0x0000000000000210       0x10 ./system/src/newlib/_sbrk.o
 .debug_ranges  0x0000000000000220       0x30 ./system/src/newlib/_startup.o
 .debug_ranges  0x0000000000000250      0x148 ./system/src/newlib/_syscalls.o
 .debug_ranges  0x0000000000000398       0x18 ./system/src/newlib/assert.o
 .debug_ranges  0x00000000000003b0       0x28 ./system/src/diag/Trace.o
 .debug_ranges  0x00000000000003d8       0x38 ./system/src/diag/trace_impl.o
 .debug_ranges  0x0000000000000410       0x18 ./system/src/cortexm/_initialize_hardware.o
 .debug_ranges  0x0000000000000428       0x98 ./system/src/cortexm/exception_handlers.o
 .debug_ranges  0x00000000000004c0       0x18 ./system/src/cmsis/system_stm32f4xx.o
 .debug_ranges  0x00000000000004d8       0x10 ./system/src/cmsis/vectors_stm32f407xx.o
 .debug_ranges  0x00000000000004e8       0x10 ./src/BlinkLed.o
 .debug_ranges  0x00000000000004f8       0x28 ./src/Timer.o
 .debug_ranges  0x0000000000000520       0x18 ./src/_initialize_hardware.o
 .debug_ranges  0x0000000000000538       0x28 ./src/main.o
 .debug_ranges  0x0000000000000560       0x28 ./src/stm32f4xx_hal_msp.o

.debug_macro    0x0000000000000000    0x1c1ae
 .debug_macro   0x0000000000000000      0x51b ./system/src/stm32f4-hal/stm32f4xx_hal.o
 .debug_macro   0x000000000000051b      0x89e ./system/src/stm32f4-hal/stm32f4xx_hal.o
 .debug_macro   0x0000000000000db9      0x283 ./system/src/stm32f4-hal/stm32f4xx_hal.o
 .debug_macro   0x000000000000103c       0x2e ./system/src/stm32f4-hal/stm32f4xx_hal.o
 .debug_macro   0x000000000000106a       0x28 ./system/src/stm32f4-hal/stm32f4xx_hal.o
 .debug_macro   0x0000000000001092       0x22 ./system/src/stm32f4-hal/stm32f4xx_hal.o
 .debug_macro   0x00000000000010b4       0x44 ./system/src/stm32f4-hal/stm32f4xx_hal.o
 .debug_macro   0x00000000000010f8       0xfd ./system/src/stm32f4-hal/stm32f4xx_hal.o
 .debug_macro   0x00000000000011f5       0x22 ./system/src/stm32f4-hal/stm32f4xx_hal.o
 .debug_macro   0x0000000000001217      0x1df ./system/src/stm32f4-hal/stm32f4xx_hal.o
 .debug_macro   0x00000000000013f6       0x35 ./system/src/stm32f4-hal/stm32f4xx_hal.o
 .debug_macro   0x000000000000142b       0x50 ./system/src/stm32f4-hal/stm32f4xx_hal.o
 .debug_macro   0x000000000000147b      0xe66 ./system/src/stm32f4-hal/stm32f4xx_hal.o
 .debug_macro   0x00000000000022e1     0x929b ./system/src/stm32f4-hal/stm32f4xx_hal.o
 .debug_macro   0x000000000000b57c       0x43 ./system/src/stm32f4-hal/stm32f4xx_hal.o
 .debug_macro   0x000000000000b5bf     0x33a6 ./system/src/stm32f4-hal/stm32f4xx_hal.o
 .debug_macro   0x000000000000e965       0x58 ./system/src/stm32f4-hal/stm32f4xx_hal.o
 .debug_macro   0x000000000000e9bd       0x35 ./system/src/stm32f4-hal/stm32f4xx_hal.o
 .debug_macro   0x000000000000e9f2       0x9c ./system/src/stm32f4-hal/stm32f4xx_hal.o
 .debug_macro   0x000000000000ea8e       0x16 ./system/src/stm32f4-hal/stm32f4xx_hal.o
 .debug_macro   0x000000000000eaa4       0x97 ./system/src/stm32f4-hal/stm32f4xx_hal.o
 .debug_macro   0x000000000000eb3b      0x329 ./system/src/stm32f4-hal/stm32f4xx_hal.o
 .debug_macro   0x000000000000ee64       0xfd ./system/src/stm32f4-hal/stm32f4xx_hal.o
 .debug_macro   0x000000000000ef61       0x10 ./system/src/stm32f4-hal/stm32f4xx_hal.o
 .debug_macro   0x000000000000ef71       0x52 ./system/src/stm32f4-hal/stm32f4xx_hal.o
 .debug_macro   0x000000000000efc3       0x16 ./system/src/stm32f4-hal/stm32f4xx_hal.o
 .debug_macro   0x000000000000efd9       0x43 ./system/src/stm32f4-hal/stm32f4xx_hal.o
 .debug_macro   0x000000000000f01c      0x187 ./system/src/stm32f4-hal/stm32f4xx_hal.o
 .debug_macro   0x000000000000f1a3       0x10 ./system/src/stm32f4-hal/stm32f4xx_hal.o
 .debug_macro   0x000000000000f1b3       0x22 ./system/src/stm32f4-hal/stm32f4xx_hal.o
 .debug_macro   0x000000000000f1d5       0x3a ./system/src/stm32f4-hal/stm32f4xx_hal.o
 .debug_macro   0x000000000000f20f       0x10 ./system/src/stm32f4-hal/stm32f4xx_hal.o
 .debug_macro   0x000000000000f21f       0x40 ./system/src/stm32f4-hal/stm32f4xx_hal.o
 .debug_macro   0x000000000000f25f       0x65 ./system/src/stm32f4-hal/stm32f4xx_hal.o
 .debug_macro   0x000000000000f2c4       0x16 ./system/src/stm32f4-hal/stm32f4xx_hal.o
 .debug_macro   0x000000000000f2da      0x197 ./system/src/stm32f4-hal/stm32f4xx_hal.o
 .debug_macro   0x000000000000f471       0x57 ./system/src/stm32f4-hal/stm32f4xx_hal.o
 .debug_macro   0x000000000000f4c8      0x964 ./system/src/stm32f4-hal/stm32f4xx_hal.o
 .debug_macro   0x000000000000fe2c      0x9da ./system/src/stm32f4-hal/stm32f4xx_hal.o
 .debug_macro   0x0000000000010806      0x11e ./system/src/stm32f4-hal/stm32f4xx_hal.o
 .debug_macro   0x0000000000010924      0x13e ./system/src/stm32f4-hal/stm32f4xx_hal.o
 .debug_macro   0x0000000000010a62       0x27 ./system/src/stm32f4-hal/stm32f4xx_hal.o
 .debug_macro   0x0000000000010a89      0x272 ./system/src/stm32f4-hal/stm32f4xx_hal.o
 .debug_macro   0x0000000000010cfb       0x5f ./system/src/stm32f4-hal/stm32f4xx_hal.o
 .debug_macro   0x0000000000010d5a      0x23a ./system/src/stm32f4-hal/stm32f4xx_hal.o
 .debug_macro   0x0000000000010f94      0x391 ./system/src/stm32f4-hal/stm32f4xx_hal.o
 .debug_macro   0x0000000000011325      0x16f ./system/src/stm32f4-hal/stm32f4xx_hal.o
 .debug_macro   0x0000000000011494       0xf9 ./system/src/stm32f4-hal/stm32f4xx_hal.o
 .debug_macro   0x000000000001158d      0x36e ./system/src/stm32f4-hal/stm32f4xx_hal.o
 .debug_macro   0x00000000000118fb       0x23 ./system/src/stm32f4-hal/stm32f4xx_hal.o
 .debug_macro   0x000000000001191e       0xe6 ./system/src/stm32f4-hal/stm32f4xx_hal.o
 .debug_macro   0x0000000000011a04       0xa1 ./system/src/stm32f4-hal/stm32f4xx_hal.o
 .debug_macro   0x0000000000011aa5       0x3c ./system/src/stm32f4-hal/stm32f4xx_hal.o
 .debug_macro   0x0000000000011ae1      0x1af ./system/src/stm32f4-hal/stm32f4xx_hal.o
 .debug_macro   0x0000000000011c90      0xcd6 ./system/src/stm32f4-hal/stm32f4xx_hal.o
 .debug_macro   0x0000000000012966      0x13a ./system/src/stm32f4-hal/stm32f4xx_hal.o
 .debug_macro   0x0000000000012aa0      0x21e ./system/src/stm32f4-hal/stm32f4xx_hal.o
 .debug_macro   0x0000000000012cbe       0x2e ./system/src/stm32f4-hal/stm32f4xx_hal.o
 .debug_macro   0x0000000000012cec      0x512 ./system/src/stm32f4-hal/stm32f4xx_hal.o
 .debug_macro   0x00000000000131fe       0x88 ./system/src/stm32f4-hal/stm32f4xx_hal.o
 .debug_macro   0x0000000000013286       0xd5 ./system/src/stm32f4-hal/stm32f4xx_hal.o
 .debug_macro   0x000000000001335b      0x183 ./system/src/stm32f4-hal/stm32f4xx_hal.o
 .debug_macro   0x00000000000134de      0x1a7 ./system/src/stm32f4-hal/stm32f4xx_hal.o
 .debug_macro   0x0000000000013685       0xa5 ./system/src/stm32f4-hal/stm32f4xx_hal.o
 .debug_macro   0x000000000001372a      0x18b ./system/src/stm32f4-hal/stm32f4xx_hal.o
 .debug_macro   0x00000000000138b5       0x24 ./system/src/stm32f4-hal/stm32f4xx_hal.o
 .debug_macro   0x00000000000138d9       0x35 ./system/src/stm32f4-hal/stm32f4xx_hal.o
 .debug_macro   0x000000000001390e       0x97 ./system/src/stm32f4-hal/stm32f4xx_hal.o
 .debug_macro   0x00000000000139a5      0x11e ./system/src/stm32f4-hal/stm32f4xx_hal.o
 .debug_macro   0x0000000000013ac3       0x7f ./system/src/stm32f4-hal/stm32f4xx_hal.o
 .debug_macro   0x0000000000013b42       0x89 ./system/src/stm32f4-hal/stm32f4xx_hal.o
 .debug_macro   0x0000000000013bcb       0x7e ./system/src/stm32f4-hal/stm32f4xx_hal.o
 .debug_macro   0x0000000000013c49      0x31a ./system/src/stm32f4-hal/stm32f4xx_hal.o
 .debug_macro   0x0000000000013f63      0x409 ./system/src/stm32f4-hal/stm32f4xx_hal.o
 .debug_macro   0x000000000001436c       0xe4 ./system/src/stm32f4-hal/stm32f4xx_hal.o
 .debug_macro   0x0000000000014450      0x48d ./system/src/stm32f4-hal/stm32f4xx_hal.o
 .debug_macro   0x00000000000148dd      0x22b ./system/src/stm32f4-hal/stm32f4xx_hal.o
 .debug_macro   0x0000000000014b08      0x202 ./system/src/stm32f4-hal/stm32f4xx_hal.o
 .debug_macro   0x0000000000014d0a      0x6d9 ./system/src/stm32f4-hal/stm32f4xx_hal.o
 .debug_macro   0x00000000000153e3       0x5b ./system/src/stm32f4-hal/stm32f4xx_hal.o
 .debug_macro   0x000000000001543e      0x14d ./system/src/stm32f4-hal/stm32f4xx_hal.o
 .debug_macro   0x000000000001558b      0x287 ./system/src/stm32f4-hal/stm32f4xx_hal.o
 .debug_macro   0x0000000000015812      0x225 ./system/src/stm32f4-hal/stm32f4xx_hal.o
 .debug_macro   0x0000000000015a37      0x1b5 ./system/src/stm32f4-hal/stm32f4xx_hal.o
 .debug_macro   0x0000000000015bec      0x2db ./system/src/stm32f4-hal/stm32f4xx_hal.o
 .debug_macro   0x0000000000015ec7       0x94 ./system/src/stm32f4-hal/stm32f4xx_hal.o
 .debug_macro   0x0000000000015f5b      0x1df ./system/src/stm32f4-hal/stm32f4xx_hal.o
 .debug_macro   0x000000000001613a      0x115 ./system/src/stm32f4-hal/stm32f4xx_hal.o
 .debug_macro   0x000000000001624f       0x6e ./system/src/stm32f4-hal/stm32f4xx_hal.o
 .debug_macro   0x00000000000162bd      0x125 ./system/src/stm32f4-hal/stm32f4xx_hal.o
 .debug_macro   0x00000000000163e2      0x4cd ./system/src/stm32f4-hal/stm32f4xx_hal_cortex.o
 .debug_macro   0x00000000000168af      0x505 ./system/src/stm32f4-hal/stm32f4xx_hal_gpio.o
 .debug_macro   0x0000000000016db4      0x4f7 ./system/src/stm32f4-hal/stm32f4xx_hal_rcc.o
 .debug_macro   0x00000000000172ab      0x172 ./system/src/newlib/_exit.o
 .debug_macro   0x000000000001741d      0x10e ./system/src/newlib/_exit.o
 .debug_macro   0x000000000001752b       0x8d ./system/src/newlib/_exit.o
 .debug_macro   0x00000000000175b8       0x35 ./system/src/newlib/_exit.o
 .debug_macro   0x00000000000175ed      0x12e ./system/src/newlib/_sbrk.o
 .debug_macro   0x000000000001771b      0x174 ./system/src/newlib/_sbrk.o
 .debug_macro   0x000000000001788f       0x10 ./system/src/newlib/_sbrk.o
 .debug_macro   0x000000000001789f      0x23b ./system/src/newlib/_sbrk.o
 .debug_macro   0x0000000000017ada      0x14d ./system/src/newlib/_startup.o
 .debug_macro   0x0000000000017c27      0x8a4 ./system/src/newlib/_startup.o
 .debug_macro   0x00000000000184cb      0x289 ./system/src/newlib/_syscalls.o
 .debug_macro   0x0000000000018754       0x10 ./system/src/newlib/_syscalls.o
 .debug_macro   0x0000000000018764       0x10 ./system/src/newlib/_syscalls.o
 .debug_macro   0x0000000000018774       0x10 ./system/src/newlib/_syscalls.o
 .debug_macro   0x0000000000018784       0x35 ./system/src/newlib/_syscalls.o
 .debug_macro   0x00000000000187b9      0x122 ./system/src/newlib/_syscalls.o
 .debug_macro   0x00000000000188db      0x1cd ./system/src/newlib/_syscalls.o
 .debug_macro   0x0000000000018aa8       0x10 ./system/src/newlib/_syscalls.o
 .debug_macro   0x0000000000018ab8       0x1c ./system/src/newlib/_syscalls.o
 .debug_macro   0x0000000000018ad4       0x16 ./system/src/newlib/_syscalls.o
 .debug_macro   0x0000000000018aea       0x88 ./system/src/newlib/_syscalls.o
 .debug_macro   0x0000000000018b72      0x241 ./system/src/newlib/_syscalls.o
 .debug_macro   0x0000000000018db3       0x16 ./system/src/newlib/_syscalls.o
 .debug_macro   0x0000000000018dc9       0x3a ./system/src/newlib/_syscalls.o
 .debug_macro   0x0000000000018e03       0xac ./system/src/newlib/_syscalls.o
 .debug_macro   0x0000000000018eaf      0x159 ./system/src/newlib/_syscalls.o
 .debug_macro   0x0000000000019008       0x16 ./system/src/newlib/_syscalls.o
 .debug_macro   0x000000000001901e       0x22 ./system/src/newlib/_syscalls.o
 .debug_macro   0x0000000000019040      0x19d ./system/src/newlib/assert.o
 .debug_macro   0x00000000000191dd       0x1c ./system/src/newlib/assert.o
 .debug_macro   0x00000000000191f9      0x19f ./system/src/diag/Trace.o
 .debug_macro   0x0000000000019398       0x52 ./system/src/diag/Trace.o
 .debug_macro   0x00000000000193ea      0x513 ./system/src/diag/trace_impl.o
 .debug_macro   0x00000000000198fd      0x4d7 ./system/src/cortexm/_initialize_hardware.o
 .debug_macro   0x0000000000019dd4      0x541 ./system/src/cortexm/exception_handlers.o
 .debug_macro   0x000000000001a315       0x3b ./system/src/cortexm/exception_handlers.o
 .debug_macro   0x000000000001a350      0x4d3 ./system/src/cmsis/system_stm32f4xx.o
 .debug_macro   0x000000000001a823       0x64 ./system/src/cmsis/vectors_stm32f407xx.o
 .debug_macro   0x000000000001a887      0x4dc ./src/BlinkLed.o
 .debug_macro   0x000000000001ad63       0x28 ./src/BlinkLed.o
 .debug_macro   0x000000000001ad8b      0x4f0 ./src/Timer.o
 .debug_macro   0x000000000001b27b       0x10 ./src/Timer.o
 .debug_macro   0x000000000001b28b      0x4cd ./src/_initialize_hardware.o
 .debug_macro   0x000000000001b758      0x55b ./src/main.o
 .debug_macro   0x000000000001bcb3       0x2e ./src/main.o
 .debug_macro   0x000000000001bce1      0x4cd ./src/stm32f4xx_hal_msp.o
